S01100004475636B57617463682E7372656395
S11300000C9434000C9451000C9451000C94510045
S11300100C9451000C9451000C9451000C94510018
S11300200C9451000C9451000C9451000C94510008
S11300300C9451000C9451000C9451000C945100F8
S11300400C9451000C9451000C9451000C945100E8
S11300500C9451000C9451000C9451000C945100D8
S11300600C9451000C94510011241FBECFEFD8E022
S1130070DEBFCDBF14E0A0E0B1E0E0E4F9E102C0EE
S113008005900D92A832B107D9F725E0A8E2B4E0B3
S113009001C01D92A932B207E1F70E94FB050C943E
S11300A09E0C0C940000CF93DF93EC0121E042EF0F
S11300B06EEE888199810E942C05811110C027E37E
S11300C044EF6EEE888199810E942C05811107C04E
S11300D020E045EF6EEE888199810E942C05DF9126
S11300E0CF9108958F929F92AF92BF92CF92DF9259
S11300F0EF92FF920F931F93FC01128A138A148AC2
S1130100158A80859185A285B385428D538D60E0E3
S113011070E04C015D01689413F8B594A79497942A
S113012087941694D1F7841A950AA60AB70A689494
S113013012F8B595A795979587951694D1F7440F1E
S1130140551F661F771F7C018D01E41AF50A060B03
S1130150170BA8019701A48DB58D0E949B096B0113
S11301607C010B2EBBE0F594E794D794C794BA9521
S1130170D1F7B02DA5019401C501B4010E944A092B
S11301809B01AC01012E1CE05595479537952795A9
S11301901A95D1F7102DA68DB78D0E949B09AB013E
S11301A0BC01032E3EE075956795579547953A95A2
S11301B0D1F7302DD701C601840F951FA61FB71F95
S11301C083AF94AFA5AFB6AF6C017D01CC0CDD1C41
S11301D0EE1CFF1CCC0CDD1CEE1CFF1C8C0D9D1DAD
S11301E0AE1DBF1D80589F4FAF4FBF4F692F7A2F51
S11301F08B2F992787FD9A951F910F91FF90EF9070
S1130200DF90CF90BF90AF909F908F9008954F92C2
S11302105F926F927F928F929F92AF92BF92CF9292
S1130220DF92EF92FF92FC0183AC94ACA5ACB6AC28
S11302302CE2921A21E0A20AB1088485C12CD12CA7
S1130240D82EDD0CDD0CDD0CDD0CDD0CDD0C0D2CF5
S1130250000CEE08FF0886A997A9092E000CAA0B2A
S1130260BB0B072E74E1880F991FAA1FBB1F7A9539
S1130270D1F7702DC81AD90AEA0AFB0AA0ADB1ADAC
S1130280A50194010E949B09C61AD70AE80AF90A33
S113029030E4D30EE11CF11C0B2EBFE0F594E7947F
S11302A0D794C794BA95D1F7B02DA2AD0A2E000CFD
S11302B0BB0BA50194010E949B092B013C01032E59
S11302C03AE075946794579447943A95D1F7302D52
S11302D0A5A9B0E00E949009DC01CB01072E7BE0C8
S11302E0B595A795979587957A95D1F7702DBC010B
S11302F0CD0170588F4F9F4FA30192010E944A096C
S1130300DC01CB01072E7AE0B595A79597958795E3
S11303107A95D1F7702D9C01AD01405E5F4FA3A982
S1130320B4A90E949B09DC01CB01905EAF4FBF4F83
S1130330BC01CD01052E5EE095958795779567956F
S11303405A95D1F7502DA70196010E944A096B01D5
S11303507C01052E5FE095958795779567955A956D
S1130360D1F7502D9B01AC010E944A099B01AC01BD
S1130370689416F855954795379527951694D1F7AF
S1130380A2A9B0E00E949009DC01CB01689413F8A3
S1130390B595A795979587951694D1F7A7019601DA
S11303A0281B390B4A0B5B0BDA01C901813091051B
S11303B0A10539E1B30724F080E090E0A0E0B9E1C1
S11303C0BB231CF480E090E0DC01BC01CD01052ED0
S11303D05CE095958795779567955A95D1F7502D5B
S11303E0FF90EF90DF90CF90BF90AF909F908F9051
S11303F07F906F905F904F900895DF92EF92FF92FD
S11304000F931F93CF93DF93CDB7DEB728970FB623
S1130410F894DEBF0FBECDBF7C0108E09E012F5FC4
S11304203F4F47EF6EEEFC01808191810E9473057E
S1130430D82E882389F082E2E8E2F1E0A8E2B4E071
S113044001900D928A95E1F768E274E0F7018281E8
S113045093810E94750877C08A8190E0A0E0B0E0A3
S1130460880F991FAA1FBB1F880F991FAA1FBB1FA4
S1130470880F991FAA1FBB1F880F991FAA1FBB1F94
S1130480498150E060E070E0032E3CE0440F551FCA
S1130490661F771F3A95D1F7302D842B952BA62B09
S11304A0B72B2B8122952F70822BF70184839583A0
S11304B0A683B7834D8150E060E070E0440F551F80
S11304C0661F771F440F551F661F771F440F551F64
S11304D0661F771F440F551F661F771F0C8110E09E
S11304E020E030E00F2EFCE0000F111F221F331F0D
S11304F0FA95D1F7F02D402B512B622B732B8E8163
S113050082958F70482B40875187628773878F81CC
S113051090E0982F88272885822B958784871686D4
S11305201786108A118AC7010E947200F701628B34
S1130530738B848B958BC7010E940701F701668B2F
S1130540778B808F918F8D2D28960FB6F894DEBF10
S11305500FBECDBFDF91CF911F910F91FF90EF9010
S1130560DF900895EF92FF920F93CF93DF93CDB76F
S1130570DEB7A1970FB6F894DEBF0FBECDBF7C01E6
S11305800AE19E012F5F3F4F48E86EEEFC01808137
S113059091810E94730581110DC007E09E01255EC3
S11305A03F4F41EE6EEEF701808191810E94730509
S11305B0882391F081E2EAE4F1E0A8E2B4E001905A
S11305C00D928A95E1F768E274E0F70182819381E4
S11305D00E94750881E086C02A8130E0322F2227EC
S11305E09981292BF701338F228F2C8130E0322F10
S11305F022279B81292B358F248F2E8130E0322FA7
S113060022279D81292B378F268F288530E0322F92
S113061022279F81292B31A320A32A8530E0322F62
S113062022279985292B33A322A32C8530E0322F4E
S113063022279B85292B35A324A32E8530E0322F36
S113064022279D85292B37A326A3288930E0322F22
S113065022279F85292B31A720A72A8930E0322F12
S113066022279989292B33A722A72C8930E0322FFE
S113067022279B89292B35A724A72E8930E0322FE6
S113068022279D89292B37A726A7288D30E0322FD2
S113069022279F89292B31AB20AB9A8D92AB2C8DCD
S11306A030E0322F22279B8D292B34AB23AB9D8D39
S11306B095AB9F8D492F4F702E8DF0E12F9F9001A8
S11306C01124242BF70137AB26AB92959F7028A1F8
S11306D0F0E12F9F90011124292BF70131AF20AFB6
S11306E099A192AFA1960FB6F894DEBF0FBECDBF0D
S11306F0DF91CF910F91FF90EF900895CF93DF9307
S1130700EC01CB01798368835B834A836EEE0E949C
S1130710E8048823F9F01F928EEE8F938BE691E024
S11307209F938F9388E294E09F938F930E94C609CE
S113073068E274E08A819B810E947508CE010E9460
S113074053000F900F900F900F900F900F908823ED
S113075059F11AC01F928EEE8F9381E891E09F9316
S11307608F9388E294E09F938F930E94C60968E276
S113077074E08A819B810E9475080F900F900F90FE
S11307800F900F900F9037C08EE0E6E9F1E0A8E2F9
S1130790B4E001900D928A95E1F768E274E08A81F1
S11307A09B810E94750827C0CE010E94B202882353
S11307B081F082E1E4EAF1E0A8E2B4E001900D9274
S11307C08A95E1F768E274E08A819B810E9475084A
S11307D012C0CE010E94FD0189E1E6EBF1E0A8E23E
S11307E0B4E001900D928A95E1F768E274E08A81A1
S11307F09B810E947508DF91CF910895FC0171835C
S113080060831092B90020E22093B80024E0209382
S1130810BC0026E1E9E3F2E0A8E2B4E001900D9225
S11308202A95E1F768E274E0FC01808191810E94DD
S113083075080895CF93DF93EC01ECEBF0E084EAC4
S1130840808380818823ACF41BC021503109A9F432
S113085082E1E1E5F2E0A8E2B4E001900D928A952C
S1130860E1F768E274E0888199810E94750881E06B
S113087029C021E034E0ECEBF0E0908199232CF7DF
S11308809091B900987F9830E1F08091B9001F925F
S11308908F9385E692E09F938F9388E294E09F93F1
S11308A08F930E94C60968E274E0888199810E944E
S11308B075080F900F900F900F900F900F9081E09C
S11308C001C080E0DF91CF910895CF93DF93EC01D5
S11308D0ECEBF0E084EA808380818823ACF41BC0D5
S11308E021503109A9F484E1EFE4F2E0A8E2B4E094
S11308F001900D928A95E1F768E274E0888199810C
S11309000E94750881E029C021E034E0ECEBF0E0BE
S1130910908199232CF79091B900987F9031E1F060
S11309208091B9001F928F9383E692E09F938F93F7
S113093088E294E09F938F930E94C60968E274E072
S1130940888199810E9475080F900F900F900F90E5
S11309500F900F9081E001C080E0DF91CF91089566
S1130960CF93DF93AC016093BB00ECEBF0E094E831
S1130970908390819923B4F41CC021503109B1F4BF
S1130980EA0187E1E0E8F2E0A8E2B4E001900D9228
S11309908A95E1F768E274E0888199810E9475087C
S11309A081E013C021E034E0ECEBF0E09081992386
S11309B024F78091B900887F883231F0803421F0A7
S11309C0883111F080E001C081E0DF91CF9108957A
S11309D01F93CF93DF93EC01162F0E941A04612F0B
S11309E0CE010E94B00494E99093BC00DF91CF91B2
S11309F01F910895CF93DF93AC01662321F084EC1B
S1130A008093BC0003C084E88093BC009091BC0038
S1130A109923B4F41CC021503109B1F4EA0186E1F0
S1130A20E7E9F2E0A8E2B4E001900D928A95E1F7DB
S1130A3068E274E0888199810E9475088FEF09C08B
S1130A4021E034E0ECEBF0E09081992324F78091ED
S1130A50BB00DF91CF910895FF920F931F93CF9323
S1130A60DF93EC01162F042FF22E0E941A04612F3B
S1130A70CE010E94B004882361F0602FCE010E9451
S1130A80B004882331F06F2DCE010E94B00481118F
S1130A9020C01F92FF921F920F931F921F938DEA03
S1130AA092E09F938F9388E294E09F938F930E94A8
S1130AB0C60968E274E0888199810E9475088DB73F
S1130AC09EB70A960FB6F8949EBF0FBE8DBF81E005
S1130AD004C084E98093BC0080E0DF91CF911F9132
S1130AE00F91FF900895CF92DF92EF92FF920F93B0
S1130AF01F93CF93DF937C01C62F142F69010E94AB
S1130B001A046C2FC7010E94B004882339F0612FA6
S1130B10C7010E94B004D82F81111FC01F921F93D8
S1130B201F92CF9381E293E09F938F9388E294E0A6
S1130B309F938F930E94C60968E274E0F701808155
S1130B4091810E9475088DB79EB708960FB6F894E8
S1130B509EBF0FBE8DBFD1E044C084E98093BC002A
S1130B60C7010E946504C1606C2FC7010E94B004D4
S1130B70882319F00230D8F42AC01F92CF938EE450
S1130B8093E09F938F9388E294E09F938F930E94C6
S1130B90C60968E274E0F701808191810E947508BA
S1130BA00F900F900F900F900F900F901AC0E601C6
S1130BB0025010E00F5F1F4FC00ED11E860161E08E
S1130BC0C7010E94FA048993C017D107C1F760E0F6
S1130BD0C7010E94FA04F601808384E98093BC0073
S1130BE0D0E08D2FDF91CF911F910F91FF90EF9067
S1130BF0DF90CF900895CF93DF93CDB7DEB7C15583
S1130C00D1090FB6F894DEBF0FBECDBF20E034E2A9
S1130C1044EF50E060E875E2CE01805C9F4F0E9493
S1130C206208BE01605C7F4FCE01805B9F4F0E94D3
S1130C30FE03AE01405C5F4FBE01605B7F4FCE019F
S1130C4001960E947E0342E0BE01605C7F4FCE01AC
S1130C50835B9F4F0E94990821E040E0BE01605CE5
S1130C607F4FCE018A5B9F4F0E94740647E0BE010E
S1130C70605C7F4FCE01865B9F4F0E94C40815E0E5
S1130C80EAE6F3E0A8E2B4E0812F01900D928A95A0
S1130C90E1F768E274E0CE01805C9F4F0E94750822
S1130CA0CE018A5B9F4F0E94C307EAE6F3E0A8E205
S1130CB0B4E0812F01900D928A95E1F768E274E027
S1130CC0CE01805C9F4F0E947508CE01865B9F4FCA
S1130CD00E941F092FEF83ED90E321508040904044
S1130CE0E1F700C00000CCCFCF93DF93EC01798310
S1130CF068834A832B8324B181E090E002C0880F8B
S1130D00991F4A95E2F78095822384B98B811F92BB
S1130D108F938FE693E09F938F9388E294E09F9361
S1130D208F930E94C60968E274E0888199810E94C9
S1130D3075080F900F900F900F900F900F90DF9108
S1130D40CF910895FC0124B181E090E0028002C0BB
S1130D50880F991F0A94E2F78095822384B94CE79F
S1130D6003C0415009F44EC02AE02A95F1F700C0AF
S1130D7023B19281692F30E002C0359527959A9569
S1130D80E2F720FFEECF35B181E090E0AC0102C084
S1130D90440F551F6A95E2F7242F2095232325B984
S1130DA044B19C01028002C0220F331F0A94E2F76F
S1130DB0242B24B9AFE7B7E01197F1F700C0000086
S1130DC024B1028002C0880F991F0A94E2F780952B
S1130DD0822384B987E191E00197F1F700C0000014
S1130DE083B190E0028002C0959587950A94E2F75A
S1130DF0A1E08A278170E7E6F6E03197F1F700C0B9
S1130E000000089580E00895FC0195B121E030E0F0
S1130E10A901028002C0440F551F0A94E2F7842FEF
S1130E208095892385B944B1C901028002C0880F25
S1130E30991F0A94E2F7842B84B985E38A95F1F724
S1130E40000094B1028002C0220F331F0A94E2F71B
S1130E502095292324B98BED90E00197F1F700C088
S1130E6000000895FC0195B121E030E0A901028061
S1130E7002C0440F551F0A94E2F7842F80958923FA
S1130E8085B944B1C901028002C0880F991F0A9430
S1130E90E2F7842B84B983E091E00197F1F700C075
S1130EA0000094B1028002C0220F331F0A94E2F7BB
S1130EB02095292324B99AE19A95F1F700C0089561
S1130EC00F931F93CF93DF938C01D62FC8E0D0FFED
S1130ED004C0C8010E94040703C0C8010E9432076D
S1130EE0D695C150A1F7DF91CF911F910F9108952D
S1130EF01F93CF93DF93FC01A8E0B0E011E080E002
S1130F0021E030E045B1B901028002C0660F771FCD
S1130F100A94E2F7962F9095942395B994B1A90178
S1130F20028002C0440F551F0A94E2F7492B44B9CA
S1130F3090E19A95F1F744B1B901028002C0660FBD
S1130F40771F0A94E2F7962F9095942394B9C5E3FA
S1130F50CA95F1F7000093B1A901028002C0440FC1
S1130F60551F0A94E2F74923C3EDD0E02197F1F726
S1130F7000C000004111812B110F119719F6DF9168
S1130F80CF911F9108951F93CF93DF93EC0120918C
S1130F9027059DEC299F912D112496959695392F1F
S1130FA0330F330F930F291355C0CE010E94A206AD
S1130FB06CECCE010E94600764E4CE010E946007DD
S1130FC0CE010E94A2066CECCE010E9460076EEB7B
S1130FD0CE010E946007CE010E947807182FCE012F
S1130FE00E947807212F30E0382BC901880F991F00
S1130FF0820F931F880F991FA901552314F44D5F85
S11310005F4F5595479555954795840F951F64E611
S113101070E00E945A099F938F937F936F938B8103
S11310201F928F9387E993E09F938F9388E294E0D4
S11310309F938F930E94C60968E274E08881998126
S11310400E9475088DB79EB70A960FB6F8949EBF96
S11310500FBE8DBF809127058F5F80932705DF9199
S1131060CF911F910895FC0182819381A481B58160
S1131070BC01CD01689413F896958795779567958B
S11310801694D1F72081318140E050E00E946E092E
S1131090BA01A9014150510961097109BB27A72F60
S11310A0962F852F8093C5004093C40088E18093D8
S11310B0C1008EE08093C200E0ECF0E080818D7F7F
S11310C080830895FC017183608322833383448386
S11310D055830E9433080895E0ECF0E0808185FF99
S11310E0FDCF6093C60081E00895EF92FF920F93C5
S11310F01F93CF93FB016081662399F08F017C01DC
S11311000F5F1F4FC0E0C7010E946C08882351F095
S1131110CF5FF80161918F01662321F0CF3F99F7EA
S113112001C0C0E08C2FCF911F910F91FF90EF90E1
S11311300895CF93DF93EC014A83798368838AB15E
S113114021E030E002C0220F331F4A95E2F72095D8
S113115028232AB98BE1EFEAF3E0A8E2B4E0019096
S11311600D928A95E1F768E274E0888199810E9482
S11311707508DF91CF91089587E880937A001092E3
S11311807B0010927C000895FC017183608342838C
S11311900E94BC0808956BB121E030E0A901FC0174
S11311A0028002C0440F551F0A94E2F7462B4BB944
S11311B04AB1028002C0220F331F0A94E2F7242BA3
S11311C02AB90895FC014BB121E030E0B901028055
S11311D002C0660F771F0A94E2F7962F9095942326
S11311E09BB98AB1028002C0220F331F0A94E2F72E
S11311F0282B2AB908950F931F93CF93DF93EC0103
S11312000E94CB088FE99FE00197F1F700C000002E
S113121087EC80937A008FE094E00197F1F700C0A7
S113122000000091780010917900CE010E94E2083C
S1131230C8019370DF91CF911F910F910895CF93BF
S1131240DF939C01909128059370E1F4E901C901B1
S11312500E94FB089F938F9381E194E09F938F9367
S113126088E294E09F938F930E94C60968E274E039
S1131270888199810E9475080F900F900F900F90AC
S11312800F900F90809128058F5F80932805DF9140
S1131290CF910895DB018F939F930E949009BF9192
S11312A0AF91A29F800D911DA39F900DB29F900DB1
S11312B01124089597FB072E16F4009407D077FDA8
S11312C009D00E94A30907FC05D03EF490958195AE
S11312D09F4F0895709561957F4F0895A1E21A2E4E
S11312E0AA1BBB1BFD010DC0AA1FBB1FEE1FFF1FC6
S11312F0A217B307E407F50720F0A21BB30BE40B16
S1131300F50B661F771F881F991F1A9469F760955C
S11313107095809590959B01AC01BD01CF01089516
S11313200E94B709A59F900DB49F900DA49F800DB6
S1131330911D11240895B7FF0C9490090E949009FF
S1131340821B930B0895AA1BBB1B51E107C0AA1F64
S1131350BB1FA617B70710F0A61BB70B881F991F52
S11313605A95A9F780959095BC01CD010895A29F47
S1131370B001B39FC001A39F700D811D1124911D65
S1131380B29F700D811D1124911D0895AEE0B0E04F
S1131390ECECF9E00C94750C0D891E8986E08C83C5
S11313A01A8309838FEF9FE79E838D83AE01475E87
S11313B05F4F6F89788DCE0101960E94E9092F81D4
S11313C03885F801E20FF31F10822E96E4E00C94A6
S11313D0910CACE0B0E0EFEEF9E00C94670C7C010A
S11313E06B018A01FC0117821682838181FFBDC1D2
S11313F0CE0101964C01F7019381F60193FD85918D
S113140093FF81916F01882309F4ABC1853239F4CC
S113141093FD859193FF81916F01853229F4B70182
S113142090E00E94D10BE7CF512C312C20E02032E8
S1131430A0F48B3269F030F4803259F0833269F4CD
S113144020612CC08D3239F0803339F4216026C0FC
S11314502260246023C0286021C027FD27C030ED0E
S1131460380F3A3078F426FF06C0FAE05F9E300D5C
S11314701124532E13C08AE0389E300D1124332ECC
S113148020620CC08E3221F426FD6BC1206406C09C
S11314908C3611F4206802C0883641F4F60193FDBD
S11314A0859193FF81916F018111C1CF982F9F7D09
S11314B09554933028F40C5F1F4FFFE3F9830DC05C
S11314C0833631F0833771F0833509F05BC022C075
S11314D0F801808189830E5F1F4F44244394512C6B
S11314E0540115C03801F2E06F0E711CF801A080A0
S11314F0B18026FF03C0652D70E002C06FEF7FEF5F
S1131500C5012C870E94C60B2C0183012C852F77E3
S1131510222E17C03801F2E06F0E711CF801A08072
S1131520B18026FF03C0652D70E002C06FEF7FEF2E
S1131530C5012C870E94BB0B2C012C852068222E10
S1131540830123FC1BC0832D90E048165906B0F498
S1131550B70180E290E00E94D10B3A94F4CFF501F8
S113156027FC859127FE81915F01B70190E00E94DD
S1131570D10B31103A94F1E04F1A5108411451043F
S113158071F7E5C0843611F0893639F5F80127FF83
S113159007C060817181828193810C5F1F4F08C0F5
S11315A060817181072E000C880B990B0E5F1F4F11
S11315B02F76722E97FF09C090958095709561954E
S11315C07F4F8F4F9F4F2068722E2AE030E0A40196
S11315D00E94090CA82EA81844C0853729F42F7E30
S11315E0B22E2AE030E025C0F22FF97FBF2E8F36CD
S11315F0C1F018F4883579F0B4C0803719F0883711
S113160021F0AFC02F2F2061B22EB4FE0DC08B2D60
S11316108460B82E09C024FF0AC09F2F9660B92E9B
S113162006C028E030E005C020E130E002C020E13F
S113163032E0F801B7FE07C0608171818281938135
S11316400C5F1F4F06C06081718180E090E00E5FE7
S11316501F4FA4010E94090CA82EA818FB2DFF7788
S11316607F2E76FE0BC0372D3E7FA51450F474FEFA
S11316700AC072FC08C0372D3E7E05C0BA2C372D37
S113168003C0BA2C01C0B52C34FF0DC0FE01EA0D15
S1131690F11D8081803311F4397E09C032FF06C008
S11316A0B394B39404C0832F867809F0B39433FDC4
S11316B013C030FF06C05A2CB31418F4530C5B1833
S11316C0B32CB31468F4B70180E290E03C870E9425
S11316D0D10BB3943C85F5CFB31410F43B1801C07F
S11316E0312C34FF12C0B70180E390E03C870E94A4
S11316F0D10B3C8532FF17C031FD03C088E790E071
S113170002C088E590E0B7010CC0832F867859F0B9
S113171031FF02C08BE201C080E237FD8DE2B701E8
S113172090E00E94D10BA51438F4B70180E390E057
S11317300E94D10B5A94F7CFAA94F401EA0DF11D3B
S11317408081B70190E00E94D10BA110F5CF332026
S113175009F451CEB70180E290E00E94D10B3A9493
S1131760F6CFF7018681978102C08FEF9FEF2C9609
S1131770E2E10C94830CFC0105906150704001106F
S1131780D8F7809590958E0F9F1F0895FC016150A6
S1131790704001900110D8F7809590958E0F9F1F8F
S11317A008950F931F93CF93DF93FB01238121FDB2
S11317B003C08FEF9FEF28C022FF16C046815781D8
S11317C0248135814217530744F4A081B1819D01DE
S11317D02F5F3F4F318320838C93268137812F5F86
S11317E03F4F3783268310C0EB01092F182F008445
S11317F0F185E02D0995892BE1F68E819F81019673
S11318009F838E83812F902FDF91CF911F910F9112
S11318100895FA01AA27283051F1203181F1E89482
S11318206F936E7F6E5F7F4F8F4F9F4FAF4FB1E0CF
S11318303ED0B4E03CD0670F781F891F9A1FA11DCA
S1131840680F791F8A1F911DA11D6A0F711D811DCB
S1131850911DA11D20D009F468943F912AE0269F90
S113186011243019305D3193DEF6CF010895462FEF
S11318704770405D4193B3E00FD0C9F7F6CF462FD0
S11318804F70405D4A3318F0495D31FD4052419339
S113189002D0A9F7EACFB4E0A695979587957795F6
S11318A06795BA95C9F700976105710508959B017D
S11318B0AC010A2E06945795479537952795BA9506
S11318C0C9F7620F731F841F951FA01D08952F92DF
S11318D03F924F925F926F927F928F929F92AF92BC
S11318E0BF92CF92DF92EF92FF920F931F93CF9309
S11318F0DF93CDB7DEB7CA1BDB0B0FB6F894DEBFA0
S11319000FBECDBF09942A88398848885F846E84C5
S11319107D848C849B84AA84B984C884DF80EE800F
S1131920FD800C811B81AA81B981CE0FD11D0FB618
S1131930F894DEBF0FBECDBFED010895F894FFCF3C
S1131940536574206D6F6465206661696C656420FD
S11319506F76657277726974696E672068756D69F0
S1131960646974792E0D0A00726561645F64617440
S1131970612072656164207265676973746572734E
S1131980206661696C65640D0A00726561645F6359
S1131990616C207265616420726567697374657235
S11319A073206661696C65640D0A00424D453238E6
S11319B030203C307825583E20414C4956450D0A8C
S11319C000424D45323830203C307825583E204482
S11319D04541440D0A00496E6974206661696C656D
S11319E0640D0A00726561645F63616C20666169FD
S11319F06C65640D0A00424D4532383020636F6EC9
S1131A007374727563746F72206F6B210D0A0052C8
S1131A10656164696E6720424D45323830206461E7
S1131A2074612E2E2E0D0A0048756D6964697479EF
S1131A302072656164696E673A20256C752028728E
S1131A4061773A2030782530386C58290D0A0054D3
S1131A50656D706572617475726520726561646923
S1131A606E673A20256C6420287261773A203078BA
S1131A702530386C58290D0A0069326320636F6E73
S1131A807374727563746F72206F6B210D0A007228
S1131A906573746172742074696D6564206F757404
S1131AA00D0A0072657374617274207374617475C5
S1131AB0732028307825325829206261640D0A0089
S1131AC077726974655F627974652074696D6564A1
S1131AD0206F75740D0A00726561645F62797465C4
S1131AE02074696D6564206F75740D0A004E41435E
S1131AF04B206F6E207772697465203C6164647258
S1131B003A30782532582C207265673A307825327D
S1131B10582C20646174613A30782532583E0D0A9D
S1131B20004E41434B206F6E207772697465203CF0
S1131B30616464723A30782532582C207265673AB1
S1131B4030782532583E0D0A004E41434B206F6ECB
S1131B5020777269746520646174612025750D0AAB
S1131B60005772697465204E41434B206F6E20729A
S1131B70656164203C616464723A30782532582C83
S1131B80207265673A30782532583E0D0A004E417E
S1131B90434B206F6E2072656164203C6164647203
S1131BA03A30782532583E0D0A000D0A0D0A006FAE
S1131BB06E655769726520436F6E737472756374D2
S1131BC06F72206F6B2120446576696365206964B8
S1131BD03A2025640D0A0074656D702073656E7378
S1131BE06F722025643A2025642E25640D0A005462
S1131BF0696C7442616C6C20436F6E7374727563AC
S1131C00746F72204F4B210D0A00697354696C7410
S1131C1065643A2054696C745F50494E20307825CD
S1131C203032582C2031203C3C2070696E203078B2
S1131C30253032580D0A0054696C7442616C6C2072
S1131C405461736B0D0A0054696C746564210D0A48
S1131C5000555620496E6465782072656164696E2A
S10B1C60673A2025640D0A0017
S9030000FC
