S01100004475636B57617463682E7372656395
S11300000C9434000C9451000C9451000C94510045
S11300100C9451000C9451000C9451000C94510018
S11300200C9451000C9451000C9451000C94510008
S11300300C9451000C9451000C9451000C945100F8
S11300400C9451000C9451000C9451000C945100E8
S11300500C9451000C9451000C9451000C945100D8
S11300600C9451000C94510011241FBECFEFD8E022
S1130070DEBFCDBF15E0A0E0B1E0EEE4F6E202C0E1
S113008005900D92A43BB107D9F726E0A4EBB5E0A7
S113009001C01D92A83BB207E1F70E9490090C949D
S11300A025130C940000CF93DF93EC0121E042EF81
S11300B06EEE888199810E94C108811110C027E3E6
S11300C044EF6EEE888199810E94C108811107C0B6
S11300D020E045EF6EEE888199810E94C108DF918E
S11300E0CF9108952F923F924F925F926F927F9299
S11300F08F929F92AF92BF92CF92DF92EF92FF9234
S11301000F931F93CF93DF93CDB7DEB7A0970FB6AE
S1130110F894DEBF0FBECDBF98A38F8FFC018085FE
S11301209185A285B3859C01AD01689413F855951A
S11301304795379527951694D1F72D873E874F8796
S1130140588B2087318742875387EF5BFF4F80812D
S11301509181A281B3816C017D01FF0CCC08DC2C60
S11301607601282F392F4A2F5B2F6C2D7C2D8C2D57
S11301709C2D345F4140510961097109810991093C
S113018029833A834B835C836D837E838F83988733
S1130190A22EB32EC42ED52EE62EF72E082F192FFD
S11301A00E94DC0E29873A874B875C876D8B7E8B98
S11301B08F8B988FEF8DF8A1F0A9FC8FAF8DB8A12C
S11301C0D196BC91B98FEF8DF8A1F6A5FD8FAF8DB7
S11301D0B8A19F96BC91BA8FEF8DF8A1F4A5FE8FBC
S11301E0AF8DB8A19D96BC91BB8FEF8DF8A131A5C1
S11301F020A5932F990F990B492F592F692F792FE8
S1130200892F0E94DC0E0CE00E940C10222E332E4B
S1130210442E552E662E772E882E992EAF8DB8A19A
S11302209B96BC909B979A96AC901B2D110F110B2B
S1130230C12ED12EE12EF12E012F29853A854B8531
S11302405C856D897E898F89988D0E94DC0E08E01B
S11302500E942510A22CB32CC42CD52CE62CF72CF0
S1130260082D192D0E94431070588F4F9F4FEF8D0A
S1130270F8A126A037A0A22CB32CC12CD12CE12CA0
S1130280F12C00E010E00E94DC0E01E20E94251037
S1130290298B3A8B4B8B452E562E7C8B382E292E50
S11302A0652D832D922DA0E00E94551009F48FC175
S11302B0AC8C198D110F110BB98CC12ED12EE12EDE
S11302C0F12E012F29853A854B855C856D897E89C0
S11302D08F89988D0E94DC0E29873A874B87752E6B
S11302E0862E972E8C87692E2D8D9A8D990F990BBA
S11302F0A980BA80CB80DC80ED80FE800F811885D8
S11303003A8D492F592F692F792F892F0E94DC0E9E
S113031001E10E940C10A984BA84CB84D72CE82C68
S1130320F92C0C85162D0E944310A22EB32EC42E38
S1130330D52EE62EF72EE82F192F80E090E0A0E1CD
S1130340B0E02D853E854F855889821B930BA40B05
S1130350B50B3C014D01990C6608762C4301282FFE
S1130360392F4A2F5B2F662D762D862D962D0FE182
S11303700E940C10822E932E642E752EB62FA72F5A
S11303808A83F92F2E8D9B8D990F990B3B8D492FC5
S1130390592F692F792F892F03E20E940C100E2FF9
S11303A00E944310A22EB32EC42ED52EE62EF72E75
S11303B0082F192F282D392D462D572D6B2F7A2FC5
S11303C08A819F2F0E944C10822E932E642E752EAC
S11303D0B62FA72FE82FF92F03E00E940C10A82CAA
S11303E0B92CC62CD72CEB2EFA2E0E2F1F2F0E94C1
S11303F04C10A22EB32EC42ED52EE62EF72E8983B2
S1130400192F03E00E940C1009810E944C1003E094
S11304100E940C10A82CB92CC62CD72CEB2EFA2E2B
S11304200E2F1F2F0E944C1002E00E940C100E2F62
S11304300E944C1001E00E940C100E2F0E944C10E0
S1130440A988BA88CB88D42CE52CFC88032D122DDE
S11304500E94370F29833A834B835C836D837E83A9
S11304608F8398870DE00E942510822E932E742E80
S1130470652E562E472E382E292EAF8DB8A1D7962D
S11304803C91D797D6962C91932F990F990BA82C22
S1130490B92CC72CD62CE52CF42C032D122D492F66
S11304A0592F692F792F892F0E94DC0EA22EB32E8B
S11304B0C42ED52EE62EF72E082F192F282D392DD0
S11304C0472D562D652D742D832D922D0E94DC0E03
S11304D009E10E942510A22EB32EC42ED52EE62E9D
S11304E0F72E082F192F29813A814B815C816D8168
S11304F07E818F8198850E944310222E332E442EB4
S1130500552E662E772E882E992EEF8DF8A135A9BB
S113051024A9932F990F990BA980BA80CB80DC80F2
S1130520ED80FE800F811885492F592F692F792F6F
S1130530892F0E94DC0E03E10E942510A22EB32E07
S1130540C42ED52EE62EF72E082F192F222D332D4B
S1130550442D552D662D772D882D992D0E944310FD
S113056008E00E942510522E632E742E852E962E9E
S1130570F72FE82F492EAF8DB8A1D3963C91D3978E
S1130580D2962C91932F990F990B492F592F692F9C
S1130590792F892F04E00E940C10A22EB32EC42EB2
S11305A0D52EE62EF72E082F192F252D362D472D63
S11305B0582D692D7F2F8E2F942D0E94431008E013
S11305C00E942510622F732F842F952F04C060E0A2
S11305D070E080E090E0A0960FB6F894DEBF0FBE06
S11305E0CDBFDF91CF911F910F91FF90EF90DF90DE
S11305F0CF90BF90AF909F908F907F906F905F90BF
S11306004F903F902F9008958F929F92AF92BF92F8
S1130610CF92DF92EF92FF920F931F93FC01108E03
S1130620118E128E138E84859585A685B78540A17B
S113063051A160E070E04C015D01689413F8B59439
S1130640A794979487941694D1F7841A950AA60AC6
S1130650B70A689412F8B595A79597958795169457
S1130660D1F7440F551F661F771F7C018D01E41AD3
S1130670F50A060B170BA8019701A2A1B3A10E94CA
S1130680D40E6B017C010B2EBBE0F594E794D79458
S1130690C794BA95D1F7B02DA5019401C501B40151
S11306A00E94640E9B01AC01012E1CE055954795F8
S11306B0379527951A95D1F7102DA4A1B5A10E94BD
S11306C0D40EAB01BC01032E3EE07595679557959A
S11306D047953A95D1F7302D4C0D5D1D6E1D7F1D4C
S11306E0DF01AF5BBF4F4D935D936D937C93139785
S11306F06A017B01CC0CDD1CEE1CFF1CCC0CDD1C48
S1130700EE1CFF1CD701C601840F951FA61FB71F3F
S113071080589F4FAF4FBF4F892F9A2FAB2FBB27C6
S1130720A7FDBA95C480D580E680F780BC01CD01D1
S11307306C197D098E099F091F910F91FF90EF900D
S1130740DF90CF90BF90AF909F908F9008954F927D
S11307505F926F927F928F929F92AF92BF92CF924D
S1130760DF92EF92FF92FC01DC01AF5BBF4F8D90F3
S11307709D90AD90BC902CE2921A21E0A20AB1089F
S1130780C088D188E288F3880B2EBEE0CC0CDD1C37
S1130790EE1CFF1CBA95D1F7B02D84AD95AD092E92
S11307A0000CAA0BBB0B072E74E1880F991FAA1F1C
S11307B0BB1F7A95D1F7702DC81AD90AEA0AFB0A29
S11307C0A6ADB7ADA50194010E94D40EC61AD70AEE
S11307D0E80AF90A30E4D30EE11CF11C0B2EBFE049
S11307E0F594E794D794C794BA95D1F7B02DDF0167
S11307F0A05CBF4FAC910A2E000CBB0BA501940169
S11308000E94D40E2B013C01032E3AE075946794A8
S1130810579447943A95D1F7302DA3ADB0E00E9498
S1130820C90EDC01CB01072E7BE0B595A795979502
S113083087957A95D1F7702DBC01CD0170588F4FF3
S11308409F4FA30192010E94640EDC01CB01072E8D
S11308507AE0B595A795979587957A95D1F7702DF8
S11308609C01AD01405E5F4FA1ADB2AD0E94D40EBC
S1130870DC01CB01905EAF4FBF4FBC01CD01052E13
S11308805EE095958795779567955A95D1F7502DA4
S1130890A70196010E94640E6B017C01052E5FE0A6
S11308A095958795779567955A95D1F7502D9B0126
S11308B0AC010E94640E9B01AC01689416F8559536
S11308C04795379527951694D1F7A0ADB0E00E94CF
S11308D0C90EDC01CB01689413F8B595A7959795DB
S11308E087951694D1F7A7019601281B390B4A0B5B
S11308F05B0BDA01C9011AF480E090E0DC0181307D
S11309009105A10539E1B30724F080E090E0A0E06F
S1130910B9E1BC01CD01052E5CE0959587957795ED
S113092067955A95D1F7502DFF90EF90DF90CF90B7
S1130930BF90AF909F908F907F906F905F904F90FB
S11309400895DF92EF92FF920F931F93CF93DF935B
S1130950CDB7DEB728970FB6F894DEBF0FBECDBF74
S11309607C0108E09E012F5F3F4F47EF6EEEFC01D4
S1130970808191810E940809D82E882389F082E31E
S1130980E2E3F1E0A5EBB5E001900D928A95E1F781
S113099065EB75E0F701828193810E940F0D81C0A0
S11309A08A8190E0A0E0B0E0880F991FAA1FBB1FC6
S11309B0880F991FAA1FBB1F880F991FAA1FBB1F4F
S11309C0880F991FAA1FBB1F498150E060E070E0A7
S11309D0032E3CE0440F551F661F771F3A95D1F74D
S11309E0302D842B952BA62BB72B2B8122952F7082
S11309F0822BF70180879187A287B3874D8150E0CE
S1130A0060E070E0440F551F661F771F440F551FA9
S1130A10661F771F440F551F661F771F440F551F0E
S1130A20661F771F0C8110E020E030E00F2EFCE001
S1130A30000F111F221F331FFA95D1F7F02D402B01
S1130A40512B622B732B8E8182958F70482B448798
S1130A505587668777878F8190E0A0E0B0E0BA2F52
S1130A60A92F982F88272885822B808B918BA28B86
S1130A70B38BC7010E947200F701648B758B868B60
S1130A80978BC7010E940403F701608F718F828FD7
S1130A90938FC7010E94A703F701648F758F868F18
S1130AA0978F8D2D28960FB6F894DEBF0FBECDBF5D
S1130AB0DF91CF911F910F91FF90EF90DF900895F8
S1130AC0EF92FF920F93CF93DF93CDB7DEB7A19749
S1130AD00FB6F894DEBF0FBECDBF7C010AE19E01C4
S1130AE02F5F3F4F48E86EEEFC01808191810E94A8
S1130AF0080981110DC007E09E01255E3F4F41EEBC
S1130B006EEEF701808191810E940809882391F09B
S1130B1080E3E4E6F1E0A5EBB5E001900D928A955F
S1130B20E1F765EB75E0F701828193810E940F0D77
S1130B3081E088C02A8130E0322F22279981292B35
S1130B40F70131A320A32C8130E0322F22279B818F
S1130B50292B33A322A32E8130E0322F22279D811B
S1130B60292B35A324A3288530E0322F22279F8107
S1130B70292B37A326A32A8530E0322F22279985F3
S1130B80292B31A720A72C8530E0322F22279B85E3
S1130B90292B33A722A72E8530E0322F22279D85CB
S1130BA0292B35A724A7288930E0322F22279F85B7
S1130BB0292B37A726A72A8930E0322F22279989A3
S1130BC0292B31AB20AB2C8930E0322F22279B8993
S1130BD0292B33AB22AB2E8930E0322F22279D897B
S1130BE0292B35AB24AB288D30E0322F22279F8967
S1130BF0292B37AB26AB9A8D90AF2C8D30E0322F5A
S1130C0022279B8D292B32AF21AF9D8D93AF9F8DD2
S1130C10492F4F702E8DF0E12F9F90011124242B2A
S1130C20F70135AF24AF92959F7028A1F0E12F9F73
S1130C3090011124292BF70137AF26AFE05CFF4F59
S1130C4099A19083A1960FB6F894DEBF0FBECDBFD5
S1130C50DF91CF910F91FF90EF9008950F931F9321
S1130C60CF93DF93EC01CB01798368835B834A8361
S1130C700C831D832E833F836EEE0E947D088823A0
S1130C80F9F01F928EEE8F9384E991E09F938F93F6
S1130C9085EB95E09F938F930E94841065EB75E03C
S1130CA08A819B810E940F0DCE010E9453000F90F8
S1130CB00F900F900F900F900F90882359F11AC046
S1130CC01F928EEE8F938AEA91E09F938F9385EB28
S1130CD095E09F938F930E94841065EB75E08A8161
S1130CE09B810E940F0D0F900F900F900F900F900B
S1130CF00F9037C085E2EFEBF1E0A5EBB5E0019092
S1130D000D928A95E1F765EB75E08A819B810E94DB
S1130D100F0D27C0CE010E946005882381F089E26F
S1130D20E4EEF1E0A5EBB5E001900D928A95E1F7D0
S1130D3065EB75E08A819B810E940F0D12C0CE0184
S1130D400E94A10489E1EDE0F2E0A5EBB5E0019099
S1130D500D928A95E1F765EB75E08A819B810E948B
S1130D600F0DDF91CF911F910F9108958F929F9254
S1130D70AF92BF92CF92DF92EF92FF920F931F93A5
S1130D80CF93DF93EC012091B4059DEC299F912D25
S1130D90112496959695392F330F330F930F2913FA
S1130DA0B0C005EB15E088E1E6E2F2E0D80101907D
S1130DB00D928A95E1F7B8018A819B810E940F0DFB
S1130DC0CE010E94A104C88CD98CEA8CFB8CD7017B
S1130DD0C601880F991FAA1FBB1F880F991FAA1F3E
S1130DE0BB1F880F991FAA1FBB1F8C0D9D1DAE1D15
S1130DF0BF1DBC01CD016058714C8F4F9F4F25E042
S1130E0030E040E050E00E94AA0E0F2EF4E68F2E50
S1130E10912CA12CB12CF02DCA01B901A50194018A
S1130E200E94AA0E9F938F937F936F935F934F9328
S1130E303F932F93C701B601A50194010E94AA0E06
S1130E409F938F937F936F935F934F933F932F93CE
S1130E508EE392E09F938F931F930F930E948410CD
S1130E60B8018A819B810E940F0D8C8D9D8DAE8D62
S1130E70BF8DAC01BD015370662777277F936F93B5
S1130E805F934F93072E7AE0B695A795979587952C
S1130E907A95D1F7702DBF93AF939F938F9386E686
S1130EA092E09F938F931F930F930E9484108DB7AA
S1130EB09EB780960FB6F8949EBF0FBE8DBFB80143
S1130EC08A819B810E940F0D8F898F938E898F93C6
S1130ED08D898F938C898F938CE792E09F938F9366
S1130EE01F930F930E948410B8018A819B810E94F2
S1130EF00F0D8DB79EB708960FB6F8949EBF0FBE20
S1130F008DBF8091B4058F5F8093B405DF91CF913D
S1130F101F910F91FF90EF90DF90CF90BF90AF9013
S1130F209F908F900895FC01718360831092B900A3
S1130F3020E22093B80024E02093BC0026E1EEE8F0
S1130F40F2E0A5EBB5E001900D922A95E1F765EB8F
S1130F5075E0FC01808191810E940F0D0895CF936B
S1130F60DF93EC01ECEBF0E084EA8083808188235A
S1130F70ACF41BC021503109A9F480E2E4EAF2E0A8
S1130F80A5EBB5E001900D928A95E1F765EB75E06C
S1130F90888199810E940F0D81E029C021E034E00D
S1130FA0ECEBF0E0908199232CF79091B900987FB5
S1130FB09830E1F08091B9001F928F9384EC92E015
S1130FC09F938F9385EB95E09F938F930E9484105A
S1130FD065EB75E0888199810E940F0D0F900F9049
S1130FE00F900F900F900F9081E001C080E0DF918F
S1130FF0CF910895CF93DF93EC01ECEBF0E084EA1A
S1131000808380818823ACF41BC021503109A9F46A
S113101082E2EDEEF2E0A5EBB5E001900D928A9547
S1131020E1F765EB75E0888199810E940F0D81E0FD
S113103029C021E034E0ECEBF0E0908199232CF717
S11310409091B900987F9031E1F08091B9001F929E
S11310508F938FE093E09F938F9385EB95E09F931D
S11310608F930E94841065EB75E0888199810E94BA
S11310700F0D0F900F900F900F900F900F9081E035
S113108001C080E0DF91CF910895CF93DF93AC014D
S11310906093BB00ECEBF0E094E89083908199239B
S11310A0B4F41CC021503109B1F4EA0185E2EAE349
S11310B0F3E0A5EBB5E001900D928A95E1F765EBBD
S11310C075E0888199810E940F0D81E013C021E0B1
S11310D034E0ECEBF0E09081992324F78091B9009F
S11310E0887F883231F0803421F0883111F080E03B
S11310F001C081E0DF91CF9108951F93CF93DF93D7
S1131100EC01162F0E94AF07612FCE010E94450803
S113111094E99093BC00DF91CF911F910895CF93F0
S1131120DF93AC01662321F084EC8093BC0003C000
S113113084E88093BC009091BC009923B4F41CC053
S113114021503109B1F4EA0184E2EFE5F3E0A5EBC3
S1131150B5E001900D928A95E1F765EB75E0888121
S113116099810E940F0D8FEF09C021E034E0ECEB70
S1131170F0E09081992324F78091BB00DF91CF9117
S11311800895FF920F931F93CF93DF93EC01162FD3
S1131190042FF22E0E94AF07612FCE010E94450852
S11311A0882361F0602FCE010E944508882331F026
S11311B06F2DCE010E944508811120C01F92FF921D
S11311C01F920F931F921F9383E893E09F938F9333
S11311D085EB95E09F938F930E94841065EB75E0F7
S11311E0888199810E940F0D8DB79EB70A960FB61C
S11311F0F8949EBF0FBE8DBF81E004C084E9809344
S1131200BC0080E0DF91CF911F910F91FF90089572
S1131210CF92DF92EF92FF920F931F93CF93DF93BE
S11312207C01C62F142F69010E94AF076C2FC701E0
S11312300E944508882339F0612FC7010E944508A0
S1131240D82F81111FC01F921F931F92CF9387EF36
S113125093E09F938F9385EB95E09F938F930E94E8
S1131260841065EB75E0F701808191810E940F0D78
S11312708DB79EB708960FB6F8949EBF0FBE8DBF6C
S1131280D1E044C084E98093BC00C7010E94FA07FE
S1131290C1606C2FC7010E944508882319F00230F1
S11312A0D8F42AC01F92CF9384E294E09F938F9343
S11312B085EB95E09F938F930E94841065EB75E016
S11312C0F701808191810E940F0D0F900F900F9074
S11312D00F900F900F901AC0E601025010E00F5FBC
S11312E01F4FC00ED11E860161E0C7010E948F0806
S11312F08993C017D107C1F760E0C7010E948F0826
S1131300F601808384E98093BC00D0E08D2FDF91C7
S1131310CF911F910F91FF90EF90DF90CF900895A0
S1131320CF93DF93CDB7DEB7CA55D1090FB6F89482
S1131330DEBF0FBECDBF20E034E244EF50E060E8F2
S113134075E2CE018A5B9F4F0E94FC0C8BE2E0E4C5
S1131350F4E0A5EBB5E001900D928A95E1F765EB19
S113136075E0CE018A5B9F4F0E940F0DBE016A5B40
S11313707F4FCE01875A9F4F0E94930706E111E0E9
S113138020E030E0AE014A5B5F4FBE01675A7F4FF9
S1131390CE0101960E942E0621E040E0BE016A5B68
S11313A07F4FCE01845B9F4F0E94230A43E0BE011E
S11313B06A5B7F4FCE018A5A9F4F0E94330D47E0EC
S11313C0BE016A5B7F4FCE018D5A9F4F0E94C50DAF
S11313D046E0BE016A5B7F4FCE01805B9F4F0E9457
S11313E0290C87E1EBE6F4E0A5EBB5E001900D9262
S11313F08A95E1F765EB75E0CE018A5B9F4F0E9409
S11314000F0DCE0101960E94B606CE01845B9F4F5C
S11314100E94720BCE018A5A9F4F0E94630DCE0127
S11314208D5A9F4F0E94200ECE01805B9F4F0E94D9
S1131430730C2FEF83ED90E3215080409040E1F74F
S113144000C00000DECFCF93DF93EC017983688383
S11314504A832B8324B181E090E002C0880F991F56
S11314604A95E2F78095822384B98B811F928F93EA
S113147082E894E09F938F9385EB95E09F938F93FD
S11314800E94841065EB75E0888199810E940F0D9C
S11314900F900F900F900F900F900F90DF91CF91BE
S11314A00895FC0124B181E090E0028002C0880F1D
S11314B0991F0A94E2F78095822384B94CE703C00C
S11314C0415009F44EC02AE02A95F1F700C023B137
S11314D09281692F30E002C0359527959A95E2F7FD
S11314E020FFEECF35B181E090E0AC0102C0440FA3
S11314F0551F6A95E2F7242F2095232325B944B17B
S11315009C01028002C0220F331F0A94E2F7242BAD
S113151024B9AFE7B7E01197F1F700C0000024B198
S1131520028002C0880F991F0A94E2F780958223F3
S113153084B987E191E00197F1F700C0000083B11D
S113154090E0028002C0959587950A94E2F7A1E0A5
S11315508A278170E7E6F6E03197F1F700C00000D2
S1131560089580E00895FC0195B121E030E0A901DF
S1131570028002C0440F551F0A94E2F7842F80951D
S1131580892385B944B1C901028002C0880F991F1B
S11315900A94E2F7842B84B985E38A95F1F7000075
S11315A094B1028002C0220F331F0A94E2F72095FF
S11315B0292324B98BED90E00197F1F700C00000D6
S11315C00895FC0195B121E030E0A901028002C038
S11315D0440F551F0A94E2F7842F8095892385B917
S11315E044B1C901028002C0880F991F0A94E2F72E
S11315F0842B84B983E091E00197F1F700C00000E7
S113160094B1028002C0220F331F0A94E2F720959E
S1131610292324B99AE19A95F1F700C008950F930C
S11316201F93CF93DF938C01D62FC8E0D0FF04C063
S1131630C8010E94B30A03C0C8010E94E10AD695FA
S1131640C150A1F7DF91CF911F910F9108951F937E
S1131650CF93DF93FC01A8E0B0E011E080E021E04B
S113166030E045B1B901028002C0660F771F0A94C9
S1131670E2F7962F9095942395B994B1A90102802D
S113168002C0440F551F0A94E2F7492B44B990E174
S11316909A95F1F744B1B901028002C0660F771F31
S11316A00A94E2F7962F9095942394B9C5E3CA95CA
S11316B0F1F7000093B1A901028002C0440F551F45
S11316C00A94E2F74923C3EDD0E02197F1F700C073
S11316D000004111812B110F119719F6DF91CF9161
S11316E01F9108950F931F93CF93DF93EC012091E3
S11316F0B4069DEC299F912D112496959695392F2A
S1131700330F330F930F29139AC089E1EAEAF4E007
S1131710A5EBB5E001900D928A95E1F765EB75E0D4
S1131720888199810E940F0DCE010E94510A6CECB0
S1131730CE010E940F0B64E4CE010E940F0BCE0178
S11317400E94510A6CECCE010E940F0B6EEBCE018D
S11317500E940F0BCE010E94270B182FCE010E946E
S1131760270B212F30E0A901582B8A01000F111FEC
S11317709801240F351F220F331F8A01552314F4B7
S11317800D5F1F4F1595079515950795020F131FAC
S1131790C801012E000CAA0BBB0BAC01BD01440F08
S11317A0551F661F771F440F551F661F771F440F71
S11317B0551F661F771F840F951FA61FB71FBC01F7
S11317C0CD016058714C8F4F9F4F25E030E040E0D1
S11317D050E00E94AA0ECA01B90124E630E040E0BC
S11317E050E00E94AA0E9F938F937F936F935F9311
S11317F04F933F932F93C80164E670E00E94740EE8
S11318009F938F937F936F938B811F928F9383EC1E
S113181094E09F938F9385EB95E09F938F930E9421
S1131820841065EB75E0888199810E940F0D8DB756
S11318309EB742960FB6F8949EBF0FBE8DBF80919F
S1131840B4068F5F8093B406DF91CF911F910F91FF
S11318500895CF93DF93EC014A83798368838AB137
S113186021E030E002C0220F331F4A95E2F72095B1
S113187028232AB983E1ECEEF4E0A5EBB5E001906E
S11318800D928A95E1F765EB75E0888199810E9454
S11318900F0D2FEF33EB84EC94E021503040804067
S11318A09040D9F700C0000086E1EFEFF4E0A5EB2B
S11318B0B5E001900D928A95E1F765EB75E08881BA
S11318C099810E940F0DDF91CF91089529B130E0E5
S11318D0A901FC01028002C0559547950A94E2F7DC
S11318E0CA0181700895CF93DF93EC018091B5060E
S11318F09DEC899F912D112496959695292F220F61
S1131900220F920F891341C085E1E5E1F5E0A5EBD3
S1131910B5E001900D928A95E1F765EB75E0888159
S113192099810E940F0D8BE0EAE2F5E0A5EBB5E0AA
S113193001900D928A95E1F765EB75E088819981B4
S11319400E940F0DCE010E94660C81110FC085E02C
S1131950E5E3F5E0A5EBB5E001900D928A95E1F79A
S113196065EB75E0888199810E940F0D8AE0EAE3B6
S1131970F5E0A5EBB5E001900D928A95E1F765EBF2
S113198075E0888199810E940F0D8091B5068F5F63
S11319908093B506DF91CF910895FC0182819381F4
S11319A0A481B581BC01CD01689413F896958795FF
S11319B0779567951694D1F72081318140E050E006
S11319C00E94880EBA01A9014150510961097109A7
S11319D0BB27A72F962F852F8093C5004093C40063
S11319E088E18093C1008EE08093C200E0ECF0E0D7
S11319F080818D7F80830895FC01718360832283BD
S1131A003383448355830E94CD0C0895E0ECF0E0C9
S1131A10808185FFFDCF6093C60081E00895EF9239
S1131A20FF920F931F93CF93FB016081662399F07C
S1131A308F017C010F5F1F4FC0E0C7010E94060D9C
S1131A40882351F0CF5FF80161918F01662321F063
S1131A50CF3F99F701C0C0E08C2FCF911F910F9118
S1131A60FF90EF900895CF93DF93EC014A8379833D
S1131A7068838AB121E030E002C0220F331F4A9507
S1131A80E2F7209528232AB98BE1E4E4F5E0A5EBFD
S1131A90B5E001900D928A95E1F765EB75E08881D8
S1131AA099810E940F0DDF91CF91089529B130E003
S1131AB0A901FC01028002C0559547950A94E2F7FA
S1131AC0CA0181700895CF93DF93EC018091B6062B
S1131AD09DEC899F912D112496959695292F220F7F
S1131AE0220F920F891341C08AE1EFE5F5E0A5EBDF
S1131AF0B5E001900D928A95E1F765EB75E0888178
S1131B0099810E940F0D8BE0EAE2F5E0A5EBB5E0C8
S1131B1001900D928A95E1F765EB75E088819981D2
S1131B200E940F0DCE010E94560D81110FC085E059
S1131B30E5E3F5E0A5EBB5E001900D928A95E1F7B8
S1131B4065EB75E0888199810E940F0D8AE0E9E7D1
S1131B50F5E0A5EBB5E001900D928A95E1F765EB10
S1131B6075E0888199810E940F0D8091B6068F5F80
S1131B708093B606DF91CF91089587E880937A0029
S1131B8010927B0010927C000895FC0171836083A5
S1131B9042830E94BD0D08956BB121E030E0A9019C
S1131BA0FC01028002C0440F551F0A94E2F7462B41
S1131BB04BB94AB1028002C0220F331F0A94E2F7E4
S1131BC0242B2AB90895FC014BB121E030E0B9017E
S1131BD0028002C0660F771F0A94E2F7962F909551
S1131BE094239BB98AB1028002C0220F331F0A9446
S1131BF0E2F7282B2AB908950F931F93CF93DF930D
S1131C00EC010E94CC0D8FE99FE00197F1F700C031
S1131C10000087EC80937A008FE094E00197F1F75D
S1131C2000C000000091780010917900CE010E945C
S1131C30E30DC8019370DF91CF911F910F91089527
S1131C400F931F93CF93DF93EC012091B7069DEC84
S1131C50299F912D112496959695892F880F880F89
S1131C60980F291327C005EB15E089E1E3E8F5E0B7
S1131C70D80101900D928A95E1F7B8018881998184
S1131C800E940F0DCE010E94FC0D9F938F938CE94F
S1131C9095E09F938F931F930F930E948410B80134
S1131CA0888199810E940F0D0F900F900F900F90D3
S1131CB00F900F908091B7068F5F8093B706DF91E6
S1131CC0CF911F910F910895DB018F939F930E94F1
S1131CD0C90EBF91AF91A29F800D911DA39F900D3E
S1131CE0B29F900D1124089597FB072E16F40094CB
S1131CF007D077FD09D00E94611007FC05D03EF49F
S1131D00909581959F4F0895709561957F4F0895A3
S1131D10A1E21A2EAA1BBB1BFD010DC0AA1FBB1FEB
S1131D20EE1FFF1FA217B307E407F50720F0A21B5D
S1131D30B30BE40BF50B661F771F881F991F1A94CA
S1131D4069F760957095809590959B01AC01BD01F4
S1131D50CF010895052E97FB1EF400940E94C10E36
S1131D6057FD07D00E94880E07FC03D04EF40C9454
S1131D70C10E50954095309521953F4F4F4F5F4F81
S1131D80089590958095709561957F4F8F4F9F4FE3
S1131D9008950E947510A59F900DB49F900DA49F67
S1131DA0800D911D11240895B7FF0C94C90E0E9453
S1131DB0C90E821B930B0895DF93CF931F930F9348
S1131DC09A9DF02D219FF00D8B9DF00D8A9DE02DA5
S1131DD0F10D039FF00D029FE00DF11D4E9DE00DEE
S1131DE0F11D5E9DF00D4F9DF00D7F936F93BF929B
S1131DF0AF925F934F93D5010E9475108B01AC0194
S1131E00D7010E947510EB01E80FF91FD6010E945B
S1131E102C0F2F913F91D6010E947510C60FD71F2A
S1131E20E81FF91FAF91BF910E942C0F2F913F9192
S1131E300E947510C60FD71FE81FF91FD6010E9414
S1131E407510E60FF71F9801BE01CF0111240F9101
S1131E501F91CF91DF9108950E947510460F571F6F
S1131E60C81FD91F08F431960895689401C0E894F6
S1131E70F92FF12B12F00C94690FA0E0B0E0E3E429
S1131E80FFE00C94DB0F092E059422F40E94C50F89
S1131E90112392F4F0E80F26FFEFE094F0940095FC
S1131EA01095B094C094D094A194BF0ACF0ADF0ACD
S1131EB0EF0AFF0A0F0B1F0B0E94740F07FC0E940E
S1131EC0C50FCDB7DEB7ECE00C94F70F689401C0F2
S1131ED0E8948F929F92CF93DF930E94740FDF91C7
S1131EE0CF919F908F90089588249924F401E40160
S1131EF0B0E49F93AA279A158B049C04ED05FE0574
S1131F00CF05D007A10798F4AD2FDC2FCF2FFE2FDC
S1131F10E92D982C892E982F872F762F652F542FF3
S1131F20432F322F2227B85031F7BF9127C01B2EE1
S1131F30BF91BB27220F331F441F551F661F771FF6
S1131F40881F991F881C991CEE1FFF1FCC1FDD1FC3
S1131F50AA1FBB1F8A149B04EC05FD05CE05DF05F3
S1131F60A007B10748F08A189B08EC09FD09CE09BF
S1131F70DF09A00BB10B21601A94E1F62EF4940151
S1131F80AF01BE01CD01000C089560957095809558
S1131F90909530954095509521953F4F4F4F5F4F09
S1131FA06F4F7F4F8F4F9F4F08952F923F924F92C5
S1131FB05F926F927F928F929F92AF92BF92CF92D5
S1131FC0DF92EF92FF920F931F93CF93DF93CDB7DE
S1131FD0DEB7CA1BDB0B0FB6F894DEBF0FBECDBF56
S1131FE009942A88398848885F846E847D848C8427
S1131FF09B84AA84B984C884DF80EE80FD800C8130
S11320001B81AA81B981CE0FD11D0FB6F894DEBF12
S11320100FBECDBFED0108950F93083090F0982FB7
S1132020872F762F652F542F432F322F22270850C6
S1132030F4CF220F331F441F551F661F771F881FBD
S1132040991F0A95B2F70F91089597FB10F816940B
S113205000080F93083098F00850232F342F452F91
S1132060562F672F782F892F902DF4CF05949795AD
S113207087957795679557954795379527950A9549
S1132080AAF70F9108952A0D3B1D4C1D5D1D6E1D71
S11320907F1D801F911F08952A193B094C095D0972
S11320A06E097F09800B910B08950024A7FD00940D
S11320B02A17300540055005600570058005900518
S11320C00895AA1BBB1B51E107C0AA1FBB1FA6177B
S11320D0B70710F0A61BB70B881F991F5A95A9F7CD
S11320E080959095BC01CD010895A29FB001B39F46
S11320F0C001A39F700D811D1124911DB29F700D0D
S1132100811D1124911D0895AEE0B0E0EAE8F0E1EC
S11321100C94E30F0D891E8986E08C831A8309834E
S11321208FEF9FE79E838D83AE01475E5F4F6F897C
S1132130788DCE0101960E94A7102F813885F80171
S1132140E20FF31F10822E96E4E00C94FF0FACE034
S1132150B0E0EDEAF0E10C94D50F7C016B018A014B
S1132160FC0117821682838181FFBDC1CE010196D5
S11321704C01F7019381F60193FD859193FF8191C1
S11321806F01882309F4ABC1853239F493FD85913D
S113219093FF81916F01853229F4B70190E00E9489
S11321A08F12E7CF512C312C20E02032A0F48B3257
S11321B069F030F4803259F0833269F420612CC024
S11321C08D3239F0803339F4216026C022602460D6
S11321D023C0286021C027FD27C030ED380F3A30D6
S11321E078F426FF06C0FAE05F9E300D1124532ECA
S11321F013C08AE0389E300D1124332E20620CC0A7
S11322008E3221F426FD6BC1206406C08C3611F495
S1132210206802C0883641F4F60193FD859193FF4E
S113222081916F018111C1CF982F9F7D9554933077
S113223028F40C5F1F4FFFE3F9830DC0833631F0A0
S1132240833771F0833509F05BC022C0F8018081C7
S113225089830E5F1F4F44244394512C540115C0AD
S11322603801F2E06F0E711CF801A080B18026FFE6
S113227003C0652D70E002C06FEF7FEFC5012C87AE
S11322800E9484122C0183012C852F77222E17C0E3
S11322903801F2E06F0E711CF801A080B18026FFB6
S11322A003C0652D70E002C06FEF7FEFC5012C877E
S11322B00E9479122C012C852068222E830123FC94
S11322C01BC0832D90E048165906B0F4B70180E294
S11322D090E00E948F123A94F4CFF50127FC859187
S11322E027FE81915F01B70190E00E948F123110A7
S11322F03A94F1E04F1A51084114510471F7E5C0C2
S1132300843611F0893639F5F80127FF07C060815A
S11323107181828193810C5F1F4F08C0608171813C
S1132320072E000C880B990B0E5F1F4F2F76722E11
S113233097FF09C090958095709561957F4F8F4F59
S11323409F4F2068722E2AE030E0A4010E94C71239
S1132350A82EA81844C0853729F42F7EB22E2AE06F
S113236030E025C0F22FF97FBF2E8F36C1F018F46C
S1132370883579F0B4C0803719F0883721F0AFC0C0
S11323802F2F2061B22EB4FE0DC08B2D8460B82E89
S113239009C024FF0AC09F2F9660B92E06C028E00A
S11323A030E005C020E130E002C020E132E0F80175
S11323B0B7FE07C060817181828193810C5F1F4FDA
S11323C006C06081718180E090E00E5F1F4FA40120
S11323D00E94C712A82EA818FB2DFF777F2E76FE29
S11323E00BC0372D3E7FA51450F474FE0AC072FC56
S11323F008C0372D3E7E05C0BA2C372D03C0BA2C39
S113240001C0B52C34FF0DC0FE01EA0DF11D808121
S1132410803311F4397E09C032FF06C0B394B394FB
S113242004C0832F867809F0B39433FD13C030FFC2
S113243006C05A2CB31418F4530C5B18B32CB31401
S113244068F4B70180E290E03C870E948F12B39455
S11324503C85F5CFB31410F43B1801C0312C34FF84
S113246012C0B70180E390E03C870E948F123C8544
S113247032FF17C031FD03C088E790E002C088E551
S113248090E0B7010CC0832F867859F031FF02C069
S11324908BE201C080E237FD8DE2B70190E00E943B
S11324A08F12A51438F4B70180E390E00E948F12D4
S11324B05A94F7CFAA94F401EA0DF11D8081B70173
S11324C090E00E948F12A110F5CF332009F451CE71
S11324D0B70180E290E00E948F123A94F6CFF701A0
S11324E08681978102C08FEF9FEF2C96E2E10C94D6
S11324F0F10FFC010590615070400110D8F78095F0
S113250090958E0F9F1F0895FC01615070400190BB
S11325100110D8F7809590958E0F9F1F08950F9303
S11325201F93CF93DF93FB01238121FD03C08FEF22
S11325309FEF28C022FF16C0468157812481358130
S11325404217530744F4A081B1819D012F5F3F4F8F
S1132550318320838C93268137812F5F3F4F3783CC
S1132560268310C0EB01092F182F0084F185E02D7C
S11325700995892BE1F68E819F8101969F838E8335
S1132580812F902FDF91CF911F910F910895FA0120
S1132590AA27283051F1203181F1E8946F936E7F9E
S11325A06E5F7F4F8F4F9F4FAF4FB1E03ED0B4E08F
S11325B03CD0670F781F891F9A1FA11D680F791FD0
S11325C08A1F911DA11D6A0F711D811D911DA11DE1
S11325D020D009F468943F912AE0269F11243019F1
S11325E0305D3193DEF6CF010895462F4770405D8C
S11325F04193B3E00FD0C9F7F6CF462F4F70405D3B
S11326004A3318F0495D31FD4052419302D0A9F795
S1132610EACFB4E0A6959795879577956795BA958F
S1132620C9F700976105710508959B01AC010A2E55
S113263006945795479537952795BA95C9F7620F2C
S1112640731F841F951FA01D0895F894FFCFEB
S113264E424D453238303A3A7365745F6D6F646546
S113265E202D204641494C4544206F766572777291
S113266E6974696E672068756D69646974792E0D75
S113267E0A00424D453238303A3A726561645F64FD
S113268E617461204641494C454420746F20726543
S113269E6164206461746120726567697374657224
S11326AE730D0A00424D453238303A3A7265616410
S11326BE5F63616C204641494C454420746F20721F
S11326CE6561642063616C207265696773746572F9
S11326DE730D0A00424D45323830203C307825586F
S11326EE3E20414C4956450D0A00424D4532383084
S11326FE203C307825583E20444541440D0A004282
S113270E4D453238303A3A424D4532383020464102
S113271E494C454420424D453238303A3A696E6947
S113272E740D0A00424D453238303A3A424D453224
S113273E3830204641494C454420424D45323830CC
S113274E3A3A726561645F63616C0D0A00424D45ED
S113275E32383020436F6E7374727563746F7220E7
S113276E4F4B210D0A000D0A424D4532383020548C
S113277E61736B2052756E6E696E670D0A00546537
S113278E6D70657261747572653A20256C642E25C0
S113279E30326C6443206F7220256C642E253032E7
S11327AE6C64460D0A0048756D69646974793A2043
S11327BE256C752E256C7525250D0A0050726573D2
S11327CE737572653A20256C7550610D0A00693275
S11327DE6320636F6E7374727563746F72204F4BE4
S11327EE210D0A006932633A3A7374617274204699
S11327FE41494C4544202D2074696D6564206F75E4
S113280E740D0A006932633A3A7374617274204625
S113281E41494C4544202D207374617475732028EE
S113282E307825325829206261640D0A00693263BA
S113283E3A3A72657374617274204641494C454448
S113284E202D2074696D6564206F75740D0A0069FE
S113285E32633A3A72657374617274204641494C1C
S113286E4544202D207374617475732028307825A7
S113287E325829206261640D0A006932633A3A774C
S113288E726974655F62797465204641494C4544AA
S113289E202D2074696D6564206F75740D0A0069AE
S11328AE32633A3A726561645F62797465204641B7
S11328BE494C4544202D2074696D6564206F7574F0
S11328CE0D0A004E41434B206F6E2077726974657A
S11328DE203C616464723A30782532582C2072653B
S11328EE673A30782532582C20646174613A307816
S11328FE2532583E0D0A004E41434B206F6E207711
S113290E72697465203C616464723A307825325879
S113291E2C207265673A30782532583E0D0A004EE7
S113292E41434B206F6E2077726974652064617425
S113293E612025750D0A005772697465204E414356
S113294E4B206F6E2072656164203C616464723A40
S113295E30782532582C207265673A3078253258F3
S113296E3E0D0A004E41434B206F6E20726561642A
S113297E203C616464723A30782532583E0D0A0068
S113298E4372656174696E6720616E6420696E6955
S113299E7469616C697A696E6720616C6C20736509
S11329AE6E736F72732E2E2E0D0A00416C6C2053B3
S11329BE656E736F72732063726561746564210D45
S11329CE0A006F6E655769726520436F6E73747279
S11329DE7563746F72206F6B21204465766963652D
S11329EE2069643A2025640D0A000D0A6F6E65573E
S11329FE697265205461736B2052756E6E696E67D1
S1132A0E0D0A0054656D702073656E736F72202508
S1132A1E643A2025642E2530326443206F722025BB
S1132A2E6C642E2530326C64460D0A0050495220D7
S1132A3E43616C6962726174696E672E2E2E00504A
S1132A4E495220436F6E7374727563746F72204FA4
S1132A5E4B210D0A000D0A504952205461736B200C
S1132A6E52756E6E696E670D0A0053656E736F72E2
S1132A7E20697320004E4F5420006163746976659B
S1132A8E2E0D0A0054696C7442616C6C20436F6E97
S1132A9E7374727563746F72204F4B210D0A000D9F
S1132AAE0A54696C7442616C6C205461736B2052CD
S1132ABE756E6E696E670D0A0074696C7465642EAA
S1132ACE0D0A000D0A5556496E64657820546173DB
S1132ADE6B2052756E6E696E670D0A00555620494D
S1132AEE6E6465782072656164696E673A20256448
S1072AFE0D0A0000B9
S9030000FC
