:100000000C9434000C9451000C9451000C94510049
:100010000C9451000C9451000C9451000C9451001C
:100020000C9451000C9451000C9451000C9451000C
:100030000C9451000C9451000C9451000C945100FC
:100040000C9451000C9451000C9451000C945100EC
:100050000C9451000C9451000C9451000C945100DC
:100060000C9451000C94510011241FBECFEFD8E026
:10007000DEBFCDBF11E0A0E0B1E0E2EFF2E002C0F0
:1000800005900D92A832B107D9F722E0A8E2B1E0BD
:1000900001C01D92A832B207E1F70E9453000C94F0
:1000A00077010C940000CF93DF93CDB7DEB729978B
:1000B0000FB6F894DEBF0FBECDBF20E034E244EFB0
:1000C00050E060E875E2CE0101960E941E0142E018
:1000D000BE016F5F7F4FCE0107960E947D00CE016B
:1000E00007960E94C7002FEF83ED90E321508040D8
:1000F0009040E1F700C00000F2CFCF93DF93EC0116
:100100004A837983688384B121E030E002C0220F02
:10011000331F4A95E2F72095282324B982E1E0E0D5
:10012000F1E0A8E2B1E001900D928A95E1F768E272
:1001300071E0888199810E9431012FEF33EB84ECCB
:1001400094E02150304080409040D9F700C000003A
:1001500086E1E2E1F1E0A8E2B1E001900D928A953A
:10016000E1F768E271E0888199810E943101DF91B5
:10017000CF91089523B130E0A901FC01028002C0B3
:10018000559547950A94E2F7CA0181700895CF9377
:10019000DF93EC010E94BA00882369F081E390E0CC
:1001A000909329018093280168E271E08881998108
:1001B0000E9431010CC080E390E09093290180936C
:1001C000280168E271E0888199810E943101809163
:1001D00027028F5F80932702DF91CF910895FC0162
:1001E00082819381A481B581BC01CD01689413F80B
:1001F00096958795779567951694D1F720813181EB
:1002000040E050E00E945501BA01A9014150510956
:1002100061097109BB27A72F962F852F8093C500F1
:100220004093C40088E18093C1008EE08093C200B7
:10023000E0ECF0E080818D7F80830895FC01718384
:10024000608322833383448355830E94EF000895A3
:10025000E0ECF0E0808185FFFDCF6093C60081E097
:100260000895EF92FF920F931F93CF93FB0160814C
:10027000662399F08F017C010F5F1F4FC0E0C7011B
:100280000E942801882351F0CF5FF80161918F010E
:10029000662321F0CF3F99F701C0C0E08C2FCF91AA
:1002A0001F910F91FF90EF900895A1E21A2EAA1BC3
:1002B000BB1BFD010DC0AA1FBB1FEE1FFF1FA21716
:1002C000B307E407F50720F0A21BB30BE40BF50B13
:1002D000661F771F881F991F1A9469F7609570959C
:1002E000809590959B01AC01BD01CF010895F894D4
:0202F000FFCF3E
:1002F20043616C6C6962726174696E672E2E2E0D99
:100302000A0050495220436F6E7374727563746FA2
:0803120072204F4B210D0A007F
:00000001FF
