:100000000C9434000C9451000C9451000C94510049
:100010000C9451000C9451000C9451000C9451001C
:100020000C9451000C9451000C9451000C9451000C
:100030000C9451000C9451000C9451000C945100FC
:100040000C9451000C9451000C9451000C945100EC
:100050000C9451000C9451000C9451000C945100DC
:100060000C9451000C94510011241FBECFEFD8E026
:10007000DEBFCDBF14E0A0E0B1E0ECEAF3E202C0E5
:1000800005900D92A83FB107D9F725E0A8EFB4E09D
:1000900001C01D92AB3FB207E1F70E9472090C94B8
:1000A000D4110C940000CF93DF93EC0121E042EFD8
:1000B0006EEE888199810E94A308811110C027E308
:1000C00044EF6EEE888199810E94A308811107C0D8
:1000D00020E045EF6EEE888199810E94A308DF91B0
:1000E000CF9108952F923F924F925F926F927F929D
:1000F0008F929F92AF92BF92CF92DF92EF92FF9238
:100100000F931F93CF93DF93CDB7DEB7A0970FB6B2
:10011000F894DEBF0FBECDBF98A38F8FFC01848102
:100120009581A681B7819C01AD01689413F855951E
:100130004795379527951694D1F72D873E874F879A
:10014000588B248335834683578383AD94ADA5AD07
:10015000B6AD6C017D01FF0CCC08DC2C7601282F9C
:10016000392F4A2F5B2F6C2D7C2D8C2D9C2D345FCD
:1001700041405109610971098109910929833A8333
:100180004B835C836D837E838F839887A22EB32EEF
:10019000C42ED52EE62EF72E082F192F0E948B0D78
:1001A00029873A874B875C876D8B7E8B8F8B988FE7
:1001B000AF8DB8A19A96BC91BC8FEF8DF8A1F3A535
:1001C000F98FAF8DB8A19896BC91BD8FEF8DF8A136
:1001D000F1A5FA8FAF8DB8A19696BC91BE8FEF8D29
:1001E000F8A1F7A1FB8FAF8DB8A193963C9193979F
:1001F00092962C91932F990F990B492F592F692F74
:10020000792F892F0E948B0D0CE00E94BB0E222EAD
:10021000332E442E552E662E772E882E992EEF8D56
:10022000F8A1B5A0A4A01B2D110F110BC12ED12E2A
:10023000E12EF12E012F29853A854B855C856D894C
:100240007E898F89988D0E948B0D08E00E94D40EC4
:10025000A22CB32CC42CD52CE62CF72C082D192D50
:100260000E94F20E70588F4F9F4FAF8DB8A190969D
:100270002D903C909197A22CB32CC12CD12CE12C29
:10028000F12C00E010E00E948B0D01E20E94D40EE0
:10029000298B3A8B4B8B452E562E7C8B382E292E54
:1002A000652D832D922DA0E00E94040F09F48FC1CB
:1002B000AC8C198D110F110BB98CC12ED12EE12EE2
:1002C000F12E012F29853A854B855C856D897E89C4
:1002D0008F89988D0E948B0D29873A874B87752EC1
:1002E000862E972E8C87692E2D8D9A8D990F990BBE
:1002F000A980BA80CB80DC80ED80FE800F811885DC
:100300003A8D492F592F692F792F892F0E948B0DF4
:1003100001E10E94BB0EA984BA84CB84D72CE82CBF
:10032000F92C0C85162D0E94F20EA22EB32EC42E8F
:10033000D52EE62EF72EE82F192F80E090E0A0E1D1
:10034000B0E02D853E854F855889821B930BA40B09
:10035000B50B3C014D01990C6608762C4301282F02
:10036000392F4A2F5B2F662D762D862D962D0FE186
:100370000E94BB0E822E932E642E752EB62FA72FB1
:100380008A83F92F2E8D9B8D990F990B3B8D492FC9
:10039000592F692F792F892F03E20E94BB0E0E2F50
:1003A0000E94F20EA22EB32EC42ED52EE62EF72ECC
:1003B000082F192F282D392D462D572D6B2F7A2FC9
:1003C0008A819F2F0E94FB0E822E932E642E752E03
:1003D000B62FA72FE82FF92F03E00E94BB0EA82C01
:1003E000B92CC62CD72CEB2EFA2E0E2F1F2F0E94C5
:1003F000FB0EA22EB32EC42ED52EE62EF72E898309
:10040000192F03E00E94BB0E09810E94FB0E03E03E
:100410000E94BB0EA82CB92CC62CD72CEB2EFA2E82
:100420000E2F1F2F0E94FB0E02E00E94BB0E0E2F0C
:100430000E94FB0E01E00E94BB0E0E2F0E94FB0EDD
:10044000A988BA88CB88D42CE52CFC88032D122DE2
:100450000E94E60D29833A834B835C836D837E8300
:100460008F8398870DE00E94D40E822E932E742ED7
:10047000652E562E472E382E292EAF8DB8A1D19637
:100480003C91D197D0962C91932F990F990BA82C32
:10049000B92CC72CD62CE52CF42C032D122D492F6A
:1004A000592F692F792F892F0E948B0DA22EB32EE1
:1004B000C42ED52EE62EF72E082F192F282D392DD4
:1004C000472D562D652D742D832D922D0E948B0D59
:1004D00009E10E94D40EA22EB32EC42ED52EE62EF4
:1004E000F72E082F192F29813A814B815C816D816C
:1004F0007E818F8198850E94F20E222E332E442E0B
:10050000552E662E772E882E992EEF8DF8A137A5C1
:1005100026A5932F990F990BA980BA80CB80DC80F8
:10052000ED80FE800F811885492F592F692F792F73
:10053000892F0E948B0D03E10E94D40EA22EB32EB0
:10054000C42ED52EE62EF72E082F192F222D332D4F
:10055000442D552D662D772D882D992D0E94F20E54
:1005600008E00E94D40E522E632E742E852E962EF5
:10057000F72FE82F492EAF8DB8A19D963C919D97FE
:100580009C962C91932F990F990B492F592F692FD6
:10059000792F892F04E00E94BB0EA22EB32EC42E09
:1005A000D52EE62EF72E082F192F252D362D472D67
:1005B000582D692D7F2F8E2F942D0E94F20E08E06A
:1005C0000E94D40E622F732F842F952F04C060E0F9
:1005D00070E080E090E0A0960FB6F894DEBF0FBE0A
:1005E000CDBFDF91CF911F910F91FF90EF90DF90E2
:1005F000CF90BF90AF909F908F907F906F905F90C3
:100600004F903F902F9008958F929F92AF92BF92FC
:10061000CF92DF92EF92FF920F931F93FC01128A09
:10062000138A148A158A80859185A285B385428DA7
:10063000538D60E070E04C015D01689413F8B5944F
:10064000A794979487941694D1F7841A950AA60ACA
:10065000B70A689412F8B595A7959795879516945B
:10066000D1F7440F551F661F771F7C018D01E41AD7
:10067000F50A060B170BA8019701A48DB58D0E94F2
:10068000830D6B017C010B2EBBE0F594E794D794AE
:10069000C794BA95D1F7B02DA5019401C501B40155
:1006A0000E94130D9B01AC01012E1CE0559547954E
:1006B000379527951A95D1F7102DA68DB78D0E94E5
:1006C000830DAB01BC01032E3EE0759567955795F0
:1006D00047953A95D1F7302DD701C601840F951F64
:1006E000A61FB71F83AF94AFA5AFB6AF6C017D0156
:1006F000CC0CDD1CEE1CFF1CCC0CDD1CEE1CFF1C0E
:100700008C0D9D1DAE1DBF1D80589F4FAF4FBF4F1D
:10071000692F7A2F8B2F992787FD9A951F910F911B
:10072000FF90EF90DF90CF90BF90AF909F908F9011
:1007300008954F925F926F927F928F929F92AF92A5
:10074000BF92CF92DF92EF92FF92FC0183AC94AC08
:10075000A5ACB6AC2CE2921A21E0A20AB1088485BD
:10076000C12CD12CD82EDD0CDD0CDD0CDD0CDD0C0C
:10077000DD0C0D2C000CEE08FF0886A997A9092EA8
:10078000000CAA0BBB0B072E74E1880F991FAA1F40
:10079000BB1F7A95D1F7702DC81AD90AEA0AFB0A4D
:1007A000A0ADB1ADA50194010E94830DC61AD70A70
:1007B000E80AF90A30E4D30EE11CF11C0B2EBFE06D
:1007C000F594E794D794C794BA95D1F7B02DA2AD1C
:1007D0000A2E000CBB0BA50194010E94830D2B0176
:1007E0003C01032E3AE075946794579447943A95E8
:1007F000D1F7302DA5A9B0E00E94780DDC01CB0126
:10080000072E7BE0B595A795979587957A95D1F7B3
:10081000702DBC01CD0170588F4F9F4FA3019201E5
:100820000E94130DDC01CB01072E7AE0B595A79548
:10083000979587957A95D1F7702D9C01AD01405E13
:100840005F4FA3A9B4A90E94830DDC01CB01905E88
:10085000AF4FBF4FBC01CD01052E5EE0959587954A
:10086000779567955A95D1F7502DA70196010E946B
:10087000130D6B017C01052E5FE0959587957795AB
:1008800067955A95D1F7502D9B01AC010E94130D2D
:100890009B01AC01689416F85595479537952795B7
:1008A0001694D1F7A2A9B0E00E94780DDC01CB012B
:1008B000689413F8B595A795979587951694D1F7F1
:1008C000A7019601281B390B4A0B5B0BDA01C90102
:1008D00081309105A10539E1B30724F080E090E073
:1008E000A0E0B9E1BB231CF480E090E0DC01BC0196
:1008F000CD01052E5CE095958795779567955A957E
:10090000D1F7502DFF90EF90DF90CF90BF90AF9038
:100910009F908F907F906F905F904F900895DF929F
:10092000EF92FF920F931F93CF93DF93CDB7DEB774
:1009300028970FB6F894DEBF0FBECDBF7C0108E04C
:100940009E012F5F3F4F47EF6EEEFC01808191814A
:100950000E94EA08D82E882389F082E3E2E3F1E0DE
:10096000A9EFB4E001900D928A95E1F769EF74E088
:10097000F701828193810E94D40B7BC08A8190E031
:10098000A0E0B0E0880F991FAA1FBB1F880F991F16
:10099000AA1FBB1F880F991FAA1FBB1F880F991F73
:1009A000AA1FBB1F498150E060E070E0032E3CE0CD
:1009B000440F551F661F771F3A95D1F7302D842BB2
:1009C000952BA62BB72B2B8122952F70822BF7010D
:1009D00084839583A683B7834D8150E060E070E007
:1009E000440F551F661F771F440F551F661F771F43
:1009F000440F551F661F771F440F551F661F771F33
:100A00000C8110E020E030E00F2EFCE0000F111F01
:100A1000221F331FFA95D1F7F02D402B512B622B5B
:100A2000732B8E8182958F70482B40875187628708
:100A300073878F8190E0982F88272885822B958750
:100A40008487C7010E947200F70166877787808BD1
:100A5000918BC7010E940403F701628B738B848B17
:100A6000958BC7010E949903F701668B778B808F66
:100A7000918F8D2D28960FB6F894DEBF0FBECDBF97
:100A8000DF91CF911F910F91FF90EF90DF9008952C
:100A9000EF92FF920F93CF93DF93CDB7DEB7A1977D
:100AA0000FB6F894DEBF0FBECDBF7C010AE19E01F8
:100AB0002F5F3F4F48E86EEEFC01808191810E94DC
:100AC000EA0881110DC007E09E01255E3F4F41EE0F
:100AD0006EEEF701808191810E94EA08882391F0EF
:100AE00080E3E4E6F1E0A9EFB4E001900D928A958D
:100AF000E1F769EF74E0F701828193810E94D40BE2
:100B000081E086C02A8130E0322F22279981292B6B
:100B1000F701338F228F2C8130E0322F22279B81E7
:100B2000292B358F248F2E8130E0322F22279D8173
:100B3000292B378F268F288530E0322F22279F815F
:100B4000292B31A320A32A8530E0322F2227998533
:100B5000292B33A322A32C8530E0322F22279B851B
:100B6000292B35A324A32E8530E0322F22279D8503
:100B7000292B37A326A3288930E0322F22279F85EF
:100B8000292B31A720A72A8930E0322F22279989E3
:100B9000292B33A722A72C8930E0322F22279B89CB
:100BA000292B35A724A72E8930E0322F22279D89B3
:100BB000292B37A726A7288D30E0322F22279F899F
:100BC000292B31AB20AB9A8D92AB2C8D30E0322F9C
:100BD00022279B8D292B34AB23AB9D8D95AB9F8D0D
:100BE000492F4F702E8DF0E12F9F90011124242B5F
:100BF000F70137AB26AB92959F7028A1F0E12F9FAC
:100C000090011124292BF70131AF20AF99A192AFA8
:100C1000A1960FB6F894DEBF0FBECDBFDF91CF9186
:100C20000F91FF90EF900895CF93DF93EC01CB01EC
:100C3000798368835B834A836EEE0E945F08882312
:100C4000F9F01F928EEE8F9384E991E09F938F933A
:100C500089EF94E09F938F930E94330F69EF74E0C4
:100C60008A819B810E94D40BCE010E9453000F9079
:100C70000F900F900F900F900F90882359F11AC08A
:100C80001F928EEE8F938AEA91E09F938F9389EF64
:100C900094E09F938F930E94330F69EF74E08A81F1
:100CA0009B810E94D40B0F900F900F900F900F908C
:100CB0000F9037C085E2EFEBF1E0A9EFB4E00190CF
:100CC0000D928A95E1F769EF74E08A819B810E9419
:100CD000D40B27C0CE010E944805882381F089E209
:100CE000E4EEF1E0A9EFB4E001900D928A95E1F70E
:100CF00069EF74E08A819B810E94D40B12C0CE01FF
:100D00000E948F0489E1EDE0F2E0A9EFB4E00190E8
:100D10000D928A95E1F769EF74E08A819B810E94C8
:100D2000D40BDF91CF9108958F929F92AF92BF9293
:100D3000CF92DF92EF92FF920F931F93CF93DF93A7
:100D4000EC012091F8049BEA299F912D112496959E
:100D5000392F330F930F2913B6C009EF14E086E142
:100D6000E6E2F2E0D80101900D928A95E1F7B80130
:100D70008A819B810E94D40BCE010E948F046E85D4
:100D80007F85888999890F2EF4E6CF2ED12CE12C0E
:100D9000F12CF02DA70196010E94590D9F938F937E
:100DA0007F936F935F934F933F932F938F818F9395
:100DB0008E818F938D818F938C818F938CE392E0C2
:100DC0009F938F931F930F930E94330FB8018A81D3
:100DD0009B810E94D40B8A889B88AC88BD88A4EB39
:100DE000B0E0A50194010E94780D6058734F8F4FB9
:100DF0009F4FA70196010E94590D9F938F937F9358
:100E00006F935F934F933F932F93C501B401A70155
:100E100096010E94590D9F938F937F936F935F93D9
:100E20004F933F932F938B858F938A858F938985DB
:100E30008F9388858F938BE592E09F938F931F9379
:100E40000F930E94330F8DB79EB788960FB6F89414
:100E50009EBF0FBE8DBFB8018A819B810E94D40BBB
:100E60008E899F89A88DB98DAC01BD01537066270D
:100E700077277F936F935F934F93072E7AE0B69512
:100E8000A795979587957A95D1F7702DBF93AF93D6
:100E90009F938F938D858F938C858F9386E892E0B7
:100EA0009F938F931F930F930E94330FB8018A81F2
:100EB0009B810E94D40B8DB79EB70E960FB6F89407
:100EC0009EBF0FBE8DBF8091F8048F5F8093F804A2
:100ED000DF91CF911F910F91FF90EF90DF90CF9016
:100EE000BF90AF909F908F900895FC0171836083B5
:100EF0001092B90020E22093B80024E02093BC00B7
:100F000026E1E4EAF2E0A9EFB4E001900D922A951F
:100F1000E1F769EF74E0FC01808191810E94D40BBC
:100F20000895CF93DF93EC01ECEBF0E084EA80834B
:100F300080818823ACF41BC021503109A9F480E2E0
:100F4000EAEBF2E0A9EFB4E001900D928A95E1F7A7
:100F500069EF74E0888199810E94D40B81E029C0F7
:100F600021E034E0ECEBF0E0908199232CF79091B4
:100F7000B900987F9830E1F08091B9001F928F936B
:100F80008AED92E09F938F9389EF94E09F938F93E4
:100F90000E94330F69EF74E0888199810E94D40B1D
:100FA0000F900F900F900F900F900F9081E001C065
:100FB00080E0DF91CF910895CF93DF93EC01ECEBCC
:100FC000F0E084EA808380818823ACF41BC0215048
:100FD0003109A9F482E2E3E0F3E0A9EFB4E0019083
:100FE0000D928A95E1F769EF74E0888199810E94FA
:100FF000D40B81E029C021E034E0ECEBF0E09081FB
:1010000099232CF79091B900987F9031E1F080916D
:10101000B9001F928F9385E293E09F938F9389EF9E
:1010200094E09F938F930E94330F69EF74E088815F
:1010300099810E94D40B0F900F900F900F900F90FA
:101040000F9081E001C080E0DF91CF910895CF93B0
:10105000DF93AC016093BB00ECEBF0E094E890838D
:1010600090819923B4F41CC021503109B1F4EA01F4
:1010700085E2E0E5F3E0A9EFB4E001900D928A95F6
:10108000E1F769EF74E0888199810E94D40B81E0D7
:1010900013C021E034E0ECEBF0E09081992324F7D9
:1010A0008091B900887F883231F0803421F0883116
:1010B00011F080E001C081E0DF91CF9108951F938E
:1010C000CF93DF93EC01162F0E949107612FCE0181
:1010D0000E94270894E99093BC00DF91CF911F9163
:1010E0000895CF93DF93AC01662321F084EC8093C5
:1010F000BC0003C084E88093BC009091BC0099239D
:10110000B4F41CC021503109B1F4EA0184E2E5E7EE
:10111000F3E0A9EFB4E001900D928A95E1F769EF51
:1011200074E0888199810E94D40B8FEF09C021E07F
:1011300034E0ECEBF0E09081992324F78091BB0040
:10114000DF91CF910895FF920F931F93CF93DF9379
:10115000EC01162F042FF22E0E949107612FCE0171
:101160000E942708882361F0602FCE010E94270883
:10117000882331F06F2DCE010E942708811120C0F5
:101180001F92FF921F920F931F921F9389E993E082
:101190009F938F9389EF94E09F938F930E94330FD7
:1011A00069EF74E0888199810E94D40B8DB79EB756
:1011B0000A960FB6F8949EBF0FBE8DBF81E004C0A3
:1011C00084E98093BC0080E0DF91CF911F910F9163
:1011D000FF900895CF92DF92EF92FF920F931F93AB
:1011E000CF93DF937C01C62F142F69010E949107D2
:1011F0006C2FC7010E942708882339F0612FC7018F
:101200000E942708D82F81111FC01F921F931F9281
:10121000CF938DE094E09F938F9389EF94E09F9319
:101220008F930E94330F69EF74E0F7018081918101
:101230000E94D40B8DB79EB708960FB6F8949EBF48
:101240000FBE8DBFD1E044C084E98093BC00C701CC
:101250000E94DC07C1606C2FC7010E942708882309
:1012600019F00230D8F42AC01F92CF938AE394E099
:101270009F938F9389EF94E09F938F930E94330FF6
:1012800069EF74E0F701808191810E94D40B0F9087
:101290000F900F900F900F900F901AC0E601025020
:1012A00010E00F5F1F4FC00ED11E860161E0C70125
:1012B0000E9471088993C017D107C1F760E0C70188
:1012C0000E947108F601808384E98093BC00D0E01D
:1012D0008D2FDF91CF911F910F91FF90EF90DF90B5
:1012E000CF900895CF93DF93CDB7DEB7C155D10925
:1012F0000FB6F894DEBF0FBECDBF20E034E244EF5E
:1013000050E060E875E2CE01805C9F4F0E94C10B07
:10131000BE01605C7F4FCE01805B9F4F0E947507CE
:10132000AE01405C5F4FBE01605B7F4FCE01019616
:101330000E94140643E0BE01605C7F4FCE01835BD8
:101340009F4F0E94F80B21E040E0BE01605C7F4FA0
:10135000CE018A5B9F4F0E94D30947E0BE01605CCB
:101360007F4FCE01865B9F4F0E948D0CCE01019670
:101370000E949406CE01835B9F4F0E94280CCE01F1
:101380008A5B9F4F0E94220BCE01865B9F4F0E947B
:10139000E80C2FEF83ED90E3215080409040E1F77F
:1013A00000C00000E3CFCF93DF93EC017983688323
:1013B0004A832B8324B181E090E002C0880F991FFB
:1013C0004A95E2F78095822384B98B811F928F938F
:1013D00086E594E09F938F9389EF94E09F938F939A
:1013E0000E94330F69EF74E0888199810E94D40BC9
:1013F0000F900F900F900F900F900F90DF91CF9163
:101400000895FC0124B181E090E0028002C0880FC1
:10141000991F0A94E2F78095822384B94CE703C0B0
:10142000415009F44EC02AE02A95F1F700C023B1DB
:101430009281692F30E002C0359527959A95E2F7A1
:1014400020FFEECF35B181E090E0AC0102C0440F47
:10145000551F6A95E2F7242F2095232325B944B11F
:101460009C01028002C0220F331F0A94E2F7242B52
:1014700024B9AFE7B7E01197F1F700C0000024B13D
:10148000028002C0880F991F0A94E2F78095822398
:1014900084B987E191E00197F1F700C0000083B1C2
:1014A00090E0028002C0959587950A94E2F7A1E04A
:1014B0008A278170E7E6F6E03197F1F700C0000077
:1014C000089580E00895FC0195B121E030E0A90184
:1014D000028002C0440F551F0A94E2F7842F8095C2
:1014E000892385B944B1C901028002C0880F991FC0
:1014F0000A94E2F7842B84B985E38A95F1F700001A
:1015000094B1028002C0220F331F0A94E2F72095A3
:10151000292324B98BED90E00197F1F700C000007A
:101520000895FC0195B121E030E0A901028002C0DC
:10153000440F551F0A94E2F7842F8095892385B9BB
:1015400044B1C901028002C0880F991F0A94E2F7D2
:10155000842B84B983E091E00197F1F700C000008B
:1015600094B1028002C0220F331F0A94E2F7209543
:10157000292324B99AE19A95F1F700C008950F93B1
:101580001F93CF93DF938C01D62FC8E0D0FF04C008
:10159000C8010E94630A03C0C8010E94910AD6953F
:1015A000C150A1F7DF91CF911F910F9108951F9323
:1015B000CF93DF93FC01A8E0B0E011E080E021E0F0
:1015C00030E045B1B901028002C0660F771F0A946E
:1015D000E2F7962F9095942395B994B1A9010280D2
:1015E00002C0440F551F0A94E2F7492B44B990E119
:1015F0009A95F1F744B1B901028002C0660F771FD6
:101600000A94E2F7962F9095942394B9C5E3CA956E
:10161000F1F7000093B1A901028002C0440F551FE9
:101620000A94E2F74923C3EDD0E02197F1F700C017
:1016300000004111812B110F119719F6DF91CF9105
:101640001F9108951F93CF93DF93EC012091F8052C
:101650009DEC299F912D112496959695392F330F46
:10166000330F930F291355C0CE010E94010A6CEC71
:10167000CE010E94BF0A64E4CE010E94BF0ACE01DF
:101680000E94010A6CECCE010E94BF0A6EEBCE01F3
:101690000E94BF0ACE010E94D70A182FCE010E94D5
:1016A000D70A212F30E0382BC901880F991F820FEC
:1016B000931F880F991FA901552314F44D5F5F4FA5
:1016C0005595479555954795840F951F64E670E0AD
:1016D0000E94230D9F938F937F936F938B811F9213
:1016E0008F938EE794E09F938F9389EF94E09F937D
:1016F0008F930E94330F69EF74E0888199810E9473
:10170000D40B8DB79EB70A960FB6F8949EBF0FBE46
:101710008DBF8091F8058F5F8093F805DF91CF91A1
:101720001F910895FC0182819381A481B581BC0140
:10173000CD01689413F896958795779567951694DB
:10174000D1F72081318140E050E00E94370DBA018D
:10175000A9014150510961097109BB27A72F962F93
:10176000852F8093C5004093C40088E18093C10019
:101770008EE08093C200E0ECF0E080818D7F80837A
:101780000895FC01718360832283338344835583EE
:101790000E94920B0895E0ECF0E0808185FFFDCF80
:1017A0006093C60081E00895EF92FF920F931F931C
:1017B000CF93FB016081662399F08F017C010F5F5D
:1017C0001F4FC0E0C7010E94CB0B882351F0CF5FB1
:1017D000F80161918F01662321F0CF3F99F701C095
:1017E000C0E08C2FCF911F910F91FF90EF90089543
:1017F000CF93DF93EC014A83798368838AB121E038
:1018000030E002C0220F331F4A95E2F720952823CB
:101810002AB98BE1E6E9F4E0A9EFB4E001900D927A
:101820008A95E1F769EF74E0888199810E94D40B71
:10183000DF91CF91089529B130E0A901FC01028028
:1018400002C0559547950A94E2F7CA018170089540
:10185000CF93DF93EC018091F9059DEC899F912D49
:10186000112496959695292F220F220F920F8913F6
:1018700044C08AE1E1EBF4E0A9EFB4E001900D92FD
:101880008A95E1F769EF74E0888199810E94D40B11
:101890008BE0EBECF4E0A9EFB4E001900D928A95B7
:1018A000E1F769EF74E0888199810E94D40BCE0141
:1018B0000E941B0C811112C08EE49FE4A4E5B0E0ED
:1018C0008093F9049093FA04A093FB04B093FC0472
:1018D00069EF74E0888199810E94D40B8AE0E6ED7B
:1018E000F4E0A9EFB4E001900D928A95E1F769EF79
:1018F00074E0888199810E94D40B8091F9058F5FF3
:101900008093F905DF91CF91089587E880937A005D
:1019100010927B0010927C000895FC01718360831B
:1019200042830E94850C08956BB121E030E0A9014B
:10193000FC01028002C0440F551F0A94E2F7462BB7
:101940004BB94AB1028002C0220F331F0A94E2F75A
:10195000242B2AB90895FC014BB121E030E0B901F4
:10196000028002C0660F771F0A94E2F7962F9095C7
:1019700094239BB98AB1028002C0220F331F0A94BC
:10198000E2F7282B2AB908950F931F93CF93DF9383
:10199000EC010E94940C8FE99FE00197F1F700C0E1
:1019A000000087EC80937A008FE094E00197F1F7D4
:1019B00000C000000091780010917900CE010E94D3
:1019C000AB0CC8019370DF91CF911F910F910895D7
:1019D000CF93DF939C019091FA059370E1F4E901B4
:1019E000C9010E94C40C9F938F9380EE94E09F9353
:1019F0008F9389EF94E09F938F930E94330F69EF49
:101A000074E0888199810E94D40B0F900F900F9001
:101A10000F900F900F908091FA058F5F8093FA05D9
:101A2000DF91CF910895DB018F939F930E94780DF2
:101A3000BF91AF91A29F800D911DA39F900DB29F6A
:101A4000900D1124089597FB072E16F4009407D0EB
:101A500077FD09D00E94100F07FC05D03EF4909549
:101A600081959F4F0895709561957F4F0895A1E2EC
:101A70001A2EAA1BBB1BFD010DC0AA1FBB1FEE1F08
:101A8000FF1FA217B307E407F50720F0A21BB30B53
:101A9000E40BF50B661F771F881F991F1A9469F7CF
:101AA00060957095809590959B01AC01BD01CF012B
:101AB0000895052E97FB1EF400940E94700D57FDAB
:101AC00007D00E94370D07FC03D04EF40C94700D24
:101AD00050954095309521953F4F4F4F5F4F08955A
:101AE00090958095709561957F4F8F4F9F4F08958A
:101AF0000E94240FA59F900DB49F900DA49F800D70
:101B0000911D11240895B7FF0C94780D0E94780D53
:101B1000821B930B0895DF93CF931F930F939A9D8E
:101B2000F02D219FF00D8B9DF00D8A9DE02DF10D84
:101B3000039FF00D029FE00DF11D4E9DE00DF11D84
:101B40005E9DF00D4F9DF00D7F936F93BF92AF920E
:101B50005F934F93D5010E94240F8B01AC01D701F5
:101B60000E94240FEB01E80FF91FD6010E94DB0D44
:101B70002F913F91D6010E94240FC60FD71FE81F57
:101B8000F91FAF91BF910E94DB0D2F913F910E94F1
:101B9000240FC60FD71FE81FF91FD6010E94240F7C
:101BA000E60FF71F9801BE01CF0111240F911F917D
:101BB000CF91DF9108950E94240F460F571FC81F31
:101BC000D91F08F431960895689401C0E894F92F5C
:101BD000F12B12F00C94180EA0E0B0E0E2EFFDE063
:101BE0000C948A0E092E059422F40E94740E11237F
:101BF00092F4F0E80F26FFEFE094F0940095109532
:101C0000B094C094D094A194BF0ACF0ADF0AEF0A1F
:101C1000FF0A0F0B1F0B0E94230E07FC0E94740E7D
:101C2000CDB7DEB7ECE00C94A60E689401C0E89442
:101C30008F929F92CF93DF930E94230EDF91CF91DB
:101C40009F908F90089588249924F401E401B0E4D2
:101C50009F93AA279A158B049C04ED05FE05CF05DA
:101C6000D007A10798F4AD2FDC2FCF2FFE2FE92D41
:101C7000982C892E982F872F762F652F542F432F3E
:101C8000322F2227B85031F7BF9127C01B2EBF91AA
:101C9000BB27220F331F441F551F661F771F881F46
:101CA000991F881C991CEE1FFF1FCC1FDD1FAA1F48
:101CB000BB1F8A149B04EC05FD05CE05DF05A007BC
:101CC000B10748F08A189B08EC09FD09CE09DF0925
:101CD000A00BB10B21601A94E1F62EF49401AF0130
:101CE000BE01CD01000C089560957095809590958A
:101CF00030954095509521953F4F4F4F5F4F6F4F17
:101D00007F4F8F4F9F4F08952F923F924F925F9238
:101D10006F927F928F929F92AF92BF92CF92DF92FB
:101D2000EF92FF920F931F93CF93DF93CDB7DEB760
:101D3000CA1BDB0B0FB6F894DEBF0FBECDBF0994F4
:101D40002A88398848885F846E847D848C849B844B
:101D5000AA84B984C884DF80EE80FD800C811B8159
:101D6000AA81B981CE0FD11D0FB6F894DEBF0FBE88
:101D7000CDBFED0108950F93083090F0982F872F75
:101D8000762F652F542F432F322F22270850F4CF60
:101D9000220F331F441F551F661F771F881F991F6F
:101DA0000A95B2F70F91089597FB10F81694000862
:101DB0000F93083098F00850232F342F452F562FBB
:101DC000672F782F892F902DF4CF059497958795BD
:101DD0007795679557954795379527950A95AAF76B
:101DE0000F9108952A0D3B1D4C1D5D1D6E1D7F1D1D
:101DF000801F911F08952A193B094C095D096E093E
:101E00007F09800B910B08950024A7FD00942A17E9
:101E10003005400550056005700580059005089562
:101E2000AA1BBB1B51E107C0AA1FBB1FA617B70700
:101E300010F0A61BB70B881F991F5A95A9F780951C
:101E40009095BC01CD010895A29FB001B39FC00140
:101E5000A39F700D811D1124911DB29F700D811DD6
:101E60001124911D0895AEE0B0E0E9E3FFE00C9489
:101E7000920E0D891E8986E08C831A8309838FEF69
:101E80009FE79E838D83AE01475E5F4F6F89788D9C
:101E9000CE0101960E94560F2F813885F801E20F7E
:101EA000F31F10822E96E4E00C94AE0EACE0B0E08E
:101EB000ECE5FFE00C94840E7C016B018A01FC01CF
:101EC00017821682838181FFBDC1CE0101964C012C
:101ED000F7019381F60193FD859193FF81916F0145
:101EE000882309F4ABC1853239F493FD859193FFC2
:101EF00081916F01853229F4B70190E00E943E1173
:101F0000E7CF512C312C20E02032A0F48B3269F045
:101F100030F4803259F0833269F420612CC08D3264
:101F200039F0803339F4216026C02260246023C058
:101F3000286021C027FD27C030ED380F3A3078F4F3
:101F400026FF06C0FAE05F9E300D1124532E13C009
:101F50008AE0389E300D1124332E20620CC08E3260
:101F600021F426FD6BC1206406C08C3611F4206874
:101F700002C0883641F4F60193FD859193FF81916B
:101F80006F018111C1CF982F9F7D9554933028F414
:101F90000C5F1F4FFFE3F9830DC0833631F08337A9
:101FA00071F0833509F05BC022C0F801808189831C
:101FB0000E5F1F4F44244394512C540115C0380127
:101FC000F2E06F0E711CF801A080B18026FF03C003
:101FD000652D70E002C06FEF7FEFC5012C870E9476
:101FE00033112C0183012C852F77222E17C0380145
:101FF000F2E06F0E711CF801A080B18026FF03C0D3
:10200000652D70E002C06FEF7FEFC5012C870E9445
:1020100028112C012C852068222E830123FC1BC053
:10202000832D90E048165906B0F4B70180E290E0A5
:102030000E943E113A94F4CFF50127FC859127FECA
:1020400081915F01B70190E00E943E1131103A94F6
:10205000F1E04F1A51084114510471F7E5C084367C
:1020600011F0893639F5F80127FF07C060817181C9
:10207000828193810C5F1F4F08C060817181072EA0
:10208000000C880B990B0E5F1F4F2F76722E97FF57
:1020900009C090958095709561957F4F8F4F9F4FA8
:1020A0002068722E2AE030E0A4010E947611A82E4A
:1020B000A81844C0853729F42F7EB22E2AE030E0DC
:1020C00025C0F22FF97FBF2E8F36C1F018F4883566
:1020D00079F0B4C0803719F0883721F0AFC02F2FC6
:1020E0002061B22EB4FE0DC08B2D8460B82E09C0C5
:1020F00024FF0AC09F2F9660B92E06C028E030E06A
:1021000005C020E130E002C020E132E0F801B7FE76
:1021100007C060817181828193810C5F1F4F06C06F
:102120006081718180E090E00E5F1F4FA4010E94EA
:102130007611A82EA818FB2DFF777F2E76FE0BC0F8
:10214000372D3E7FA51450F474FE0AC072FC08C0FF
:10215000372D3E7E05C0BA2C372D03C0BA2C01C0E6
:10216000B52C34FF0DC0FE01EA0DF11D80818033D6
:1021700011F4397E09C032FF06C0B394B39404C091
:10218000832F867809F0B39433FD13C030FF06C067
:102190005A2CB31418F4530C5B18B32CB31468F412
:1021A000B70180E290E03C870E943E11B3943C85E9
:1021B000F5CFB31410F43B1801C0312C34FF12C01A
:1021C000B70180E390E03C870E943E113C8532FFDE
:1021D00017C031FD03C088E790E002C088E590E0B9
:1021E000B7010CC0832F867859F031FF02C08BE213
:1021F00001C080E237FD8DE2B70190E00E943E1100
:10220000A51438F4B70180E390E00E943E115A947F
:10221000F7CFAA94F401EA0DF11D8081B70190E097
:102220000E943E11A110F5CF332009F451CEB70121
:1022300080E290E00E943E113A94F6CFF701868149
:10224000978102C08FEF9FEF2C96E2E10C94A00ED5
:10225000FC010590615070400110D8F78095909571
:102260008E0F9F1F0895FC01615070400190011076
:10227000D8F7809590958E0F9F1F08950F931F9309
:10228000CF93DF93FB01238121FD03C08FEF9FEFED
:1022900028C022FF16C0468157812481358142170C
:1022A000530744F4A081B1819D012F5F3F4F3183DB
:1022B00020838C93268137812F5F3F4F378326837E
:1022C00010C0EB01092F182F0084F185E02D09952E
:1022D000892BE1F68E819F8101969F838E83812FCA
:1022E000902FDF91CF911F910F910895FA01AA27A6
:1022F000283051F1203181F1E8946F936E7F6E5F49
:102300007F4F8F4F9F4FAF4FB1E03ED0B4E03CD0F6
:10231000670F781F891F9A1FA11D680F791F8A1FD9
:10232000911DA11D6A0F711D811D911DA11D20D040
:1023300009F468943F912AE0269F11243019305DFA
:102340003193DEF6CF010895462F4770405D4193EB
:10235000B3E00FD0C9F7F6CF462F4F70405D4A3338
:1023600018F0495D31FD4052419302D0A9F7EACF00
:10237000B4E0A6959795879577956795BA95C9F72F
:1023800000976105710508959B01AC010A2E069422
:102390005795479537952795BA95C9F7620F731FDB
:0C23A000841F951FA01D0895F894FFCF26
:1023AC00424D453238303A3A7365745F6D6F6465EF
:1023BC00202D204641494C4544206F76657277723A
:1023CC006974696E672068756D69646974792E0D1E
:1023DC000A00424D453238303A3A726561645F64A6
:1023EC00617461204641494C454420746F207265EC
:1023FC0061642064617461207265676973746572CD
:10240C00730D0A00424D453238303A3A72656164B8
:10241C005F63616C204641494C454420746F2072C7
:10242C006561642063616C207265696773746572A1
:10243C00730D0A00424D45323830203C3078255817
:10244C003E20414C4956450D0A00424D453238302C
:10245C00203C307825583E20444541440D0A00422A
:10246C004D453238303A3A424D45323830204641AB
:10247C00494C454420424D453238303A3A696E69F0
:10248C00740D0A00424D453238303A3A424D4532CD
:10249C003830204641494C454420424D4532383075
:1024AC003A3A726561645F63616C0D0A00424D4596
:1024BC0032383020436F6E7374727563746F722090
:1024CC004F4B210D0A00424D453238302054617378
:1024DC006B2052756E6E696E670D0A0050726573D3
:1024EC007375726520287261773A20256C64293ADD
:1024FC002025642E256450610D0A0054656D7065AD
:10250C0072617475726520287261773A20256C644B
:10251C00293A2025642E256443206F722025642ED1
:10252C002564460D0A0048756D6964697479202824
:10253C007261773A20256C64293A2025642E256433
:10254C00250D0A0069326320636F6E7374727563B4
:10255C00746F72204F4B210D0A006932633A3A7343
:10256C0074617274204641494C4544202D20746995
:10257C006D6564206F75740D0A006932633A3A73A5
:10258C0074617274204641494C4544202D2073746B
:10259C006174757320283078253258292062616463
:1025AC000D0A006932633A3A726573746172742071
:1025BC004641494C4544202D2074696D6564206F5B
:1025CC0075740D0A006932633A3A726573746172FC
:1025DC0074204641494C4544202D20737461747518
:1025EC00732028307825325829206261640D0A0046
:1025FC006932633A3A77726974655F6279746520FF
:10260C004641494C4544202D2074696D6564206F0A
:10261C0075740D0A006932633A3A726561645F62DF
:10262C00797465204641494C4544202D2074696DD0
:10263C006564206F75740D0A004E41434B206F6E1C
:10264C00207772697465203C616464723A30782535
:10265C0032582C207265673A30782532582C206419
:10266C006174613A30782532583E0D0A004E414370
:10267C004B206F6E207772697465203C61646472C4
:10268C003A30782532582C207265673A30782532EA
:10269C00583E0D0A004E41434B206F6E20777269F5
:1026AC00746520646174612025750D0A0057726988
:1026BC007465204E41434B206F6E2072656164201F
:1026CC003C616464723A30782532582C207265670C
:1026DC003A30782532583E0D0A004E41434B206F5C
:1026EC006E2072656164203C616464723A307825B6
:1026FC0032583E0D0A006F6E655769726520436F44
:10270C006E7374727563746F72206F6B21204465E5
:10271C00766963652069643A2025640D0A00746546
:10272C006D702073656E736F722025643A2025647A
:10273C002E25640D0A0054696C7442616C6C204344
:10274C006F6E7374727563746F72204F4B210D0A28
:10275C00000D0A54696C7442616C6C205461736B8B
:10276C002052756E6E696E670D0A0053656E736F3D
:10277C0072206973200074696C7465642E0D0A00F4
:10278C00555620496E6465782072656164696E6780
:08279C003A2025640D0A00003B
:00000001FF
