:100000000C9434000C9451000C9451000C94510049
:100010000C9451000C945A0A0C9451000C94510009
:100020000C9451000C9451000C9451000C9451000C
:100030000C9451000C9451000C94990A0C94D40A1D
:100040000C9451000C9451000C9451000C945100EC
:100050000C9451000C9451000C9451000C945100DC
:100060000C9451000C94510011241FBECFEFD8E026
:10007000DEBFCDBF11E0A0E0B1E0E4ECF2E202C0EF
:1000800005900D92A432B107D9F721E0A4E2B1E0C6
:1000900001C01D92A134B207E1F70E9487070C94BA
:1000A00060110C940000CF93DF93EC0121E042EF4C
:1000B0006EEE888199810E940907811110C027E3A3
:1000C00044EF6EEE888199810E940907811107C073
:1000D00020E045EF6EEE888199810E940907DF914B
:1000E000CF9108952F923F924F925F926F927F929D
:1000F0008F929F92AF92BF92CF92DF92EF92FF9238
:100100000F931F93CF93DF93CDB7DEB7A0970FB6B2
:10011000F894DEBF0FBECDBF98A38F8FFC01808502
:100120009185A285B3859C01AD01689413F855951E
:100130004795379527951694D1F72D873E874F879A
:10014000588B2087318742875387EF5BFF4F808131
:100150009181A281B3816C017D01FF0CCC08DC2C64
:100160007601282F392F4A2F5B2F6C2D7C2D8C2D5B
:100170009C2D345F41405109610971098109910940
:1001800029833A834B835C836D837E838F83988737
:10019000A22EB32EC42ED52EE62EF72E082F192F01
:1001A0000E943A0D29873A874B875C876D8B7E8B3F
:1001B0008F8B988FEF8DF8A1F0A9FC8FAF8DB8A130
:1001C000D196BC91B98FEF8DF8A1F6A5FD8FAF8DBB
:1001D000B8A19F96BC91BA8FEF8DF8A1F4A5FE8FC0
:1001E000AF8DB8A19D96BC91BB8FEF8DF8A131A5C5
:1001F00020A5932F990F990B492F592F692F792FEC
:10020000892F0E943A0D0CE00E946A0E222E332E96
:10021000442E552E662E772E882E992EAF8DB8A19E
:100220009B96BC909B979A96AC901B2D110F110B2F
:10023000C12ED12EE12EF12E012F29853A854B8535
:100240005C856D897E898F89988D0E943A0D08E0C2
:100250000E94830EA22CB32CC42CD52CE62CF72C98
:10026000082D192D0E94A10E70588F4F9F4FEF8DB2
:10027000F8A126A037A0A22CB32CC12CD12CE12CA4
:10028000F12C00E010E00E943A0D01E20E94830E82
:10029000298B3A8B4B8B452E562E7C8B382E292E54
:1002A000652D832D922DA0E00E94B30E09F48FC11D
:1002B000AC8C198D110F110BB98CC12ED12EE12EE2
:1002C000F12E012F29853A854B855C856D897E89C4
:1002D0008F89988D0E943A0D29873A874B87752E12
:1002E000862E972E8C87692E2D8D9A8D990F990BBE
:1002F000A980BA80CB80DC80ED80FE800F811885DC
:100300003A8D492F592F692F792F892F0E943A0D45
:1003100001E10E946A0EA984BA84CB84D72CE82C10
:10032000F92C0C85162D0E94A10EA22EB32EC42EE0
:10033000D52EE62EF72EE82F192F80E090E0A0E1D1
:10034000B0E02D853E854F855889821B930BA40B09
:10035000B50B3C014D01990C6608762C4301282F02
:10036000392F4A2F5B2F662D762D862D962D0FE186
:100370000E946A0E822E932E642E752EB62FA72F02
:100380008A83F92F2E8D9B8D990F990B3B8D492FC9
:10039000592F692F792F892F03E20E946A0E0E2FA1
:1003A0000E94A10EA22EB32EC42ED52EE62EF72E1D
:1003B000082F192F282D392D462D572D6B2F7A2FC9
:1003C0008A819F2F0E94AA0E822E932E642E752E54
:1003D000B62FA72FE82FF92F03E00E946A0EA82C52
:1003E000B92CC62CD72CEB2EFA2E0E2F1F2F0E94C5
:1003F000AA0EA22EB32EC42ED52EE62EF72E89835A
:10040000192F03E00E946A0E09810E94AA0E03E0E0
:100410000E946A0EA82CB92CC62CD72CEB2EFA2ED3
:100420000E2F1F2F0E94AA0E02E00E946A0E0E2FAE
:100430000E94AA0E01E00E946A0E0E2F0E94AA0ED0
:10044000A988BA88CB88D42CE52CFC88032D122DE2
:100450000E94950D29833A834B835C836D837E8351
:100460008F8398870DE00E94830E822E932E742E28
:10047000652E562E472E382E292EAF8DB8A1D79631
:100480003C91D797D6962C91932F990F990BA82C26
:10049000B92CC72CD62CE52CF42C032D122D492F6A
:1004A000592F692F792F892F0E943A0DA22EB32E32
:1004B000C42ED52EE62EF72E082F192F282D392DD4
:1004C000472D562D652D742D832D922D0E943A0DAA
:1004D00009E10E94830EA22EB32EC42ED52EE62E45
:1004E000F72E082F192F29813A814B815C816D816C
:1004F0007E818F8198850E94A10E222E332E442E5C
:10050000552E662E772E882E992EEF8DF8A135A9BF
:1005100024A9932F990F990BA980BA80CB80DC80F6
:10052000ED80FE800F811885492F592F692F792F73
:10053000892F0E943A0D03E10E94830EA22EB32E52
:10054000C42ED52EE62EF72E082F192F222D332D4F
:10055000442D552D662D772D882D992D0E94A10EA5
:1005600008E00E94830E522E632E742E852E962E46
:10057000F72FE82F492EAF8DB8A1D3963C91D39792
:10058000D2962C91932F990F990B492F592F692FA0
:10059000792F892F04E00E946A0EA22EB32EC42E5A
:1005A000D52EE62EF72E082F192F252D362D472D67
:1005B000582D692D7F2F8E2F942D0E94A10E08E0BB
:1005C0000E94830E622F732F842F952F04C060E04A
:1005D00070E080E090E0A0960FB6F894DEBF0FBE0A
:1005E000CDBFDF91CF911F910F91FF90EF90DF90E2
:1005F000CF90BF90AF909F908F907F906F905F90C3
:100600004F903F902F9008958F929F92AF92BF92FC
:10061000CF92DF92EF92FF920F931F93FC01108E07
:10062000118E128E138E84859585A685B78540A17F
:1006300051A160E070E04C015D01689413F8B5943D
:10064000A794979487941694D1F7841A950AA60ACA
:10065000B70A689412F8B595A7959795879516945B
:10066000D1F7440F551F661F771F7C018D01E41AD7
:10067000F50A060B170BA8019701A2A1B3A10E94CE
:10068000320D6B017C010B2EBBE0F594E794D794FF
:10069000C794BA95D1F7B02DA5019401C501B40155
:1006A0000E94C70C9B01AC01012E1CE0559547959B
:1006B000379527951A95D1F7102DA4A1B5A10E94C1
:1006C000320DAB01BC01032E3EE075956795579541
:1006D00047953A95D1F7302D4C0D5D1D6E1D7F1D50
:1006E000DF01AF5BBF4F4D935D936D937C93139789
:1006F0006A017B01CC0CDD1CEE1CFF1CCC0CDD1C4C
:10070000EE1CFF1CD701C601840F951FA61FB71F43
:1007100080589F4FAF4FBF4F892F9A2FAB2FBB27CA
:10072000A7FDBA95C480D580E680F780BC01CD01D5
:100730006C197D098E099F091F910F91FF90EF9011
:10074000DF90CF90BF90AF909F908F9008954F9281
:100750005F926F927F928F929F92AF92BF92CF9251
:10076000DF92EF92FF92FC01DC01AF5BBF4F8D90F7
:100770009D90AD90BC902CE2921A21E0A20AB108A3
:10078000C088D188E288F3880B2EBEE0CC0CDD1C3B
:10079000EE1CFF1CBA95D1F7B02D84AD95AD092E96
:1007A000000CAA0BBB0B072E74E1880F991FAA1F20
:1007B000BB1F7A95D1F7702DC81AD90AEA0AFB0A2D
:1007C000A6ADB7ADA50194010E94320DC61AD70A95
:1007D000E80AF90A30E4D30EE11CF11C0B2EBFE04D
:1007E000F594E794D794C794BA95D1F7B02DDF016B
:1007F000A05CBF4FAC910A2E000CBB0BA50194016D
:100800000E94320D2B013C01032E3AE0759467944F
:10081000579447943A95D1F7302DA3ADB0E00E949C
:10082000270DDC01CB01072E7BE0B595A7959795A9
:1008300087957A95D1F7702DBC01CD0170588F4FF7
:100840009F4FA30192010E94C70CDC01CB01072E30
:100850007AE0B595A795979587957A95D1F7702DFC
:100860009C01AD01405E5F4FA1ADB2AD0E94320D63
:10087000DC01CB01905EAF4FBF4FBC01CD01052E17
:100880005EE095958795779567955A95D1F7502DA8
:10089000A70196010E94C70C6B017C01052E5FE049
:1008A00095958795779567955A95D1F7502D9B012A
:1008B000AC010E94C70C9B01AC01689416F85595D9
:1008C0004795379527951694D1F7A0ADB0E00E94D3
:1008D000270DDC01CB01689413F8B595A795979582
:1008E00087951694D1F7A7019601281B390B4A0B5F
:1008F0005B0BDA01C9011AF480E090E0DC01813081
:100900009105A10539E1B30724F080E090E0A0E073
:10091000B9E1BC01CD01052E5CE0959587957795F1
:1009200067955A95D1F7502DFF90EF90DF90CF90BB
:10093000BF90AF909F908F907F906F905F904F90FF
:100940000895DF92EF92FF920F931F93CF93DF935F
:10095000CDB7DEB728970FB6F894DEBF0FBECDBF78
:100960007C0108E09E012F5F3F4F47EF6EEEFC01D8
:10097000808191810E943407D82E811181C08A81A3
:1009800090E0A0E0B0E0880F991FAA1FBB1F880F5E
:10099000991FAA1FBB1F880F991FAA1FBB1F880F73
:1009A000991FAA1FBB1F498150E060E070E0032E31
:1009B0003CE0440F551F661F771F3A95D1F7302D45
:1009C000842B952BA62BB72B2B8122952F70822B56
:1009D000F70180879187A287B3874D8150E060E05F
:1009E00070E0440F551F661F771F440F551F661F89
:1009F000771F440F551F661F771F440F551F661F33
:100A0000771F0C8110E020E030E00F2EFCE0000F9B
:100A1000111F221F331FFA95D1F7F02D402B512BB8
:100A2000622B732B8E8182958F70482B448755875C
:100A3000668777878F8190E0A0E0B0E0BA2FA92F7A
:100A4000982F88272885822B808B918BA28BB38B44
:100A5000C7010E947200F701648B758B868B978BA0
:100A6000C7010E940403F701608F718F828F938FFB
:100A7000C7010E94A703F701648F758F868F978F38
:100A80008D2D28960FB6F894DEBF0FBECDBFDF9137
:100A9000CF911F910F91FF90EF90DF900895EF920B
:100AA000FF920F93CF93DF93CDB7DEB7A1970FB629
:100AB000F894DEBF0FBECDBF7C010AE19E012F5F1F
:100AC0003F4F48E86EEEFC01808191810E9434071F
:100AD000811195C007E09E01255E3F4F41EE6EEE0D
:100AE000F701808191810E943407811188C02A8199
:100AF00030E0322F22279981292BF70131A320A33F
:100B00002C8130E0322F22279B81292B33A322A373
:100B10002E8130E0322F22279D81292B35A324A35B
:100B2000288530E0322F22279F81292B37A326A347
:100B30002A8530E0322F22279985292B31A720A73B
:100B40002C8530E0322F22279B85292B33A722A723
:100B50002E8530E0322F22279D85292B35A724A70B
:100B6000288930E0322F22279F85292B37A726A7F7
:100B70002A8930E0322F22279989292B31AB20ABEB
:100B80002C8930E0322F22279B89292B33AB22ABD3
:100B90002E8930E0322F22279D89292B35AB24ABBB
:100BA000288D30E0322F22279F89292B37AB26ABA7
:100BB0009A8D90AF2C8D30E0322F22279B8D292BE0
:100BC00032AF21AF9D8D93AF9F8D492F4F702E8DEA
:100BD000F0E12F9F90011124242BF70135AF24AFB2
:100BE00092959F7028A1F0E12F9F90011124292B4D
:100BF000F70137AF26AFE05CFF4F99A19083A19634
:100C00000FB6F894DEBF0FBECDBFDF91CF910F912D
:100C1000FF90EF9008950F931F93CF93DF93EC0114
:100C2000CB01798368835B834A830C831D832E8386
:100C30003F836EEE0E94DA06882369F0CE010E949F
:100C40005300811108C0CE010E944F05811103C0DD
:100C5000CE010E94A104DF91CF911F910F910895C1
:100C6000CF93DF93EC010E94A104488D598D6A8DCA
:100C70007B8DDB01CA01880F991FAA1FBB1F880F3C
:100C8000991FAA1FBB1F880F991FAA1FBB1F840F84
:100C9000951FA61FB71FBC01CD016058714C8F4F27
:100CA0009F4F25E030E040E050E00E94F90C8C8D31
:100CB0009D8DAE8DBF8D8093280190932901A093C7
:100CC0002A01B0932B0120932C0130932D014093E6
:100CD0002E0150932F01809124018F5F8093240176
:100CE000DF91CF910895FC01718360831092B90068
:100CF00080E28093B80084E08093BC000895ECEB20
:100D0000F0E084EA80838081882324F40AC001977C
:100D100029F40FC081E094E0ECEBF0E02081222385
:100D2000B4F79091B900987F81E0983019F480E091
:100D3000089581E00895ECEBF0E084EA80838081FF
:100D4000882324F40AC0019729F40FC081E094E0BD
:100D5000ECEBF0E020812223B4F79091B900987F6A
:100D600081E0903119F480E0089581E00895609366
:100D7000BB00ECEBF0E084E880838081882324F4DE
:100D80000AC0019729F412C081E094E0ECEBF0E096
:100D900020812223B4F78091B900887F883241F006
:100DA000803431F0883121F080E0089581E00895A9
:100DB00081E008951F93CF93DF93EC01162F0E94DB
:100DC0007F06612FCE010E94B70694E99093BC0084
:100DD000DF91CF911F910895662321F084EC8093D9
:100DE000BC0003C084E88093BC008091BC008823D1
:100DF00024F40AC0019729F40AC081E094E0ECEBE6
:100E0000F0E020812223B4F78091BB0008958FEF9A
:100E10000895FF920F931F93CF93DF93EC01162F4A
:100E2000042FF22E0E947F06612FCE010E94B7068A
:100E3000882391F0602FCE010E94B706182F8823D7
:100E400059F06F2DCE010E94B706882331F084E956
:100E50008093BC0010E001C011E0812FDF91CF91A1
:100E60001F910F91FF900895CF92DF92EF92FF9222
:100E70000F931F93CF93DF937C01C62FD42F69016B
:100E80000E947F066C2FC7010E94B706182F882387
:100E900089F16D2FC7010E94B706D82F882361F111
:100EA00084E98093BC00C7010E949B066C2F61609F
:100EB000C7010E94B706882301F1023080F0E601E5
:100EC0000250802F90E00196C80ED91E860161E085
:100ED000C7010E94EC068993C017D107C1F760E0F3
:100EE000C7010E94EC06F601808384E98093BC0070
:100EF000D0E003C0D1E001C0D12F8D2FDF91CF9181
:100F00001F910F91FF90EF90DF90CF900895CF93B6
:100F1000DF93CDB7DEB7C956D1090FB6F894DEBF5F
:100F20000FBECDBF00E014E224EF30E040E855E210
:100F300060E070E0CE018A5B9F4F0E943E0BBE01D5
:100F40006A5B7F4FCE0188599F4F0E94730606E16E
:100F500011E020E030E0AE014A5B5F4FBE0168590E
:100F60007F4FCE0101960E940B0622E043E0BE01B6
:100F70006A5B7F4FCE018F599F4F0E94390823E053
:100F800042E0BE016A5B7F4FCE01835A9F4F0E94B1
:100F9000390840E0BE016A5B7F4FCE01825B9F4F04
:100FA0000E94F00B47E0BE016A5B7F4FCE018B5978
:100FB0009F4F0E94600C47E0BE016A5B7F4FCE01ED
:100FC000875A9F4F0E94200A44E0BE016A5B7F4F10
:100FD000CE018B5A9F4F0E94200A00E010E00F2E96
:100FE000FEE1FF2EF02DCE0101960E943006CE01CB
:100FF0008F599F4F0E946B09CE01835A9F4F0E94C9
:101000006B09CE01825B9F4F0E94360CCE018B593B
:101010009F4F0E94BB0CCE01875A9F4F0E94540ADB
:10102000CE018B5A9F4F0E94540A9801A9E8B8E854
:101030000E94180D929582958F7089279F7089273D
:10104000F89E9001F99E300D11240217130729F420
:10105000CE018A5B9F4F0E947B0B2FEF83ED90E3C5
:10106000215080409040E1F700C000000F5F1F4F0B
:10107000BACFFC0171836083428323832AB181E06C
:1010800090E002C0880F991F4A95E2F7809582236D
:101090008AB90895FC012AB181E090E0028002C083
:1010A000880F991F0A94E2F7809582238AB94CE74A
:1010B00003C0415009F44EC02AE02A95F1F700C060
:1010C00029B19281692F30E002C0359527959A9514
:1010D000E2F720FFEECF3BB181E090E0AC0102C02F
:1010E000440F551F6A95E2F7242F209523232BB92F
:1010F0004AB19C01028002C0220F331F0A94E2F71A
:10110000242B2AB9AFE7B7E01197F1F700C0000030
:101110002AB1028002C0880F991F0A94E2F78095D5
:1011200082238AB987E191E00197F1F700C00000BE
:1011300089B190E0028002C0959587950A94E2F704
:10114000A1E08A278170E7E6F6E03197F1F700C069
:101150000000089580E00895FC019BB121E030E09B
:10116000A901028002C0440F551F0A94E2F7842FA0
:10117000809589238BB94AB1C901028002C0880FCA
:10118000991F0A94E2F7842B8AB985E38A95F1F7CF
:1011900000009AB1028002C0220F331F0A94E2F7C6
:1011A000209529232AB98BED90E00197F1F700C033
:1011B00000000895FC019BB121E030E0A90102800C
:1011C00002C0440F551F0A94E2F7842F80958923AB
:1011D0008BB94AB1C901028002C0880F991F0A94D5
:1011E000E2F7842B8AB983E091E00197F1F700C020
:1011F00000009AB1028002C0220F331F0A94E2F766
:10120000209529232AB99AE19A95F1F700C008950B
:101210000F931F93CF93DF938C01D62FC8E0D0FF9D
:1012200004C0C8010E94AC0803C0C8010E94DA08CB
:10123000D695C150A1F7DF91CF911F910F910895DD
:101240001F93CF93DF93FC01A8E0B0E011E080E0B2
:1012500021E030E04BB1B901028002C0660F771F78
:101260000A94E2F7962F909594239BB99AB1A9011D
:10127000028002C0440F551F0A94E2F7492B4AB975
:1012800090E19A95F1F74AB1B901028002C0660F68
:10129000771F0A94E2F7962F909594239AB9C5E3A5
:1012A000CA95F1F7000099B1A901028002C0440F6C
:1012B000551F0A94E2F74923C3EDD0E02197F1F7D7
:1012C00000C000004111812B110F119719F6DF9119
:1012D000CF911F9108951F93CF93DF93EC010E944C
:1012E0004A086CECCE010E94080964E4CE010E9419
:1012F0000809CE010E944A086CECCE010E94080940
:101300006EEBCE010E940809CE010E942009182F21
:10131000CE010E942009212F30E0A901582BCA01DB
:10132000440F551F480F591F440F551F9C01992307
:1013300014F42D5F3F4F3595279535952795420F2E
:10134000531F052E000C660B770BDB01CA01880FBB
:10135000991FAA1FBB1F880F991FAA1FBB1F880FA9
:10136000991FAA1FBB1F840F951FA61FB71FBC0183
:10137000CD016058714C8F4F9F4F25E030E040E029
:1013800050E00E94F90C8B81823049F420933401A3
:101390003093350140933601509337010AC08330B2
:1013A00041F4209330013093310140933201509346
:1013B000330180913E018F5F80933E01DF91CF9199
:1013C0001F91089584B5806884BD85B5806885BD0A
:1013D00085B5856085BDEEE6F0E080818260808322
:1013E0008081826080838FEF87BD089584B584BD3E
:1013F00085B5806485BD85B5856085BDEEE6F0E088
:101400008081846080838081846080838FEF87BD4A
:101410000895E8E6F0E0208124602083EDE6F0E026
:10142000408121E030E0DC0112960C9002C0220FD6
:10143000331F0A94E2F7242B2083DA9A78940895D4
:10144000CF93DF93EC014A83798368832AB181E0EB
:1014500090E002C0880F991F4A95E2F78095822399
:101460008AB98A81843041F0873061F481E08B83CE
:10147000CE010E94E20907C082E08B83CE010E9468
:10148000F60901C01B822FEF33EB84EC94E021506E
:10149000304080409040D9F700C00000CE010E944B
:1014A000090ADF91CF91089580913F018F5F80936A
:1014B0003F0108951F920F920FB60F9211248F9340
:1014C0009F93EF93FF9380913B01F89489B19091A2
:1014D0003A01892780933B0189B180933A01809139
:1014E0003B01882364F41092390180913C018160B2
:1014F00080933C01EEE6F0E0808182608083809101
:101500003B0184FF0CC01092380180913C01826045
:1015100080933C01EEE6F0E08081846080837894E3
:10152000FF91EF919F918F910F900FBE0F901F90A1
:1015300018951F920F920FB60F9211248F939F93BD
:1015400080913C0180FF29C080913D0180FF13C044
:101550008091390191E0980F909339018B39E8F02F
:1015600080913D018E7F80933D0180913C018E7F73
:1015700080933C0112C08091390191E0980F9093C3
:101580003901843650F080913D01816080933D01A6
:1015900080913C018E7F80933C019F918F910F90B1
:1015A0000FBE0F901F9018951F920F920FB60F92BB
:1015B00011248F939F9380913C0181FF29C08091DA
:1015C0003D0181FF13C08091380191E0980F909305
:1015D00038018B39E8F080913D018D7F80933D018A
:1015E00080913C018D7F80933C0112C08091380135
:1015F00091E0980F90933801843650F080913D012E
:10160000826080933D0180913C018D7F80933C01FD
:101610009F918F910F900FBE0F901F901895FC0116
:1016200084819581A681B781BC01CD01689413F8AE
:1016300096958795779567951694D1F72081318196
:10164000428153810E94D70CBA01A901415051092E
:1016500061097109BB27A72F962F852F8093C5009D
:101660004093C40088E18093C1008EE08093C20063
:10167000E0ECF0E080818D7F808308950F931F93CD
:10168000FC01408351836283738304831583268323
:1016900037830E940F0B1F910F910895E0ECF0E04B
:1016A000808185FFFDCF6093C60081E00895EF92B1
:1016B000FF920F931F93CF93FB016081662399F0F4
:1016C0008F017C010F5F1F4FC0E0C7010E944E0BCE
:1016D000882351F0CF5FF80161918F01662321F0DB
:1016E000CF3F99F701C0C0E08C2FCF911F910F9190
:1016F000FF90EF900895EF92FF920F931F93CF9377
:10170000DF93CDB7DEB7E2970FB6F894DEBF0FBE1A
:10171000CDBF7C0120913D0190913D012695217026
:101720001F922F9391701F929F93809126018F9308
:10173000809125018F93809127011F928F93809133
:101740002B018F9380912A018F93809129018F9390
:10175000809128018F9380912F018F9380912E018A
:101760008F9380912D018F9380912C018F93809185
:1017700033018F93809132018F93809131018F9348
:10178000809130018F93809137018F938091360142
:101790008F93809135018F93809134018F9380E0F6
:1017A00091E09F938F938E010F5F1F4F1F930F93B5
:1017B0000E94BF0EB801C7010E94570B0FB6F894E4
:1017C000DEBF0FBECDBFE2960FB6F894DEBF0FBEF0
:1017D000CDBFDF91CF911F910F91FF90EF900895B2
:1017E000FC0142837183608384B121E030E002C058
:1017F000220F331F4A95E2F72095282324B913823C
:10180000148215821682089523B130E0A901FC01EB
:10181000028002C0559547950A94E2F7CA0181708B
:101820000895CF92DF92EF92FF92FC01C380D480A3
:10183000E580F68080E090E020E0B701A601082E68
:1018400004C076956795579547950A94D2F74170ED
:10185000240F01968032910581F781E0203108F450
:1018600080E0FF90EF90DF90CF900895CF92DF92CD
:10187000EF92FF92CF93DF93EC01CB80DC80ED8081
:10188000FE80CC0CDD1CEE1CFF1C0E94040CC82A40
:10189000CB82DC82ED82FE82CE010E94110C80930D
:1018A0002701DF91CF91FF90EF90DF90CF900895C7
:1018B00087E880937A0010927B0010927C00089554
:1018C000FC017183608342830E94580C08956BB1C0
:1018D00021E030E0A901FC01028002C0440F551F45
:1018E0000A94E2F7462B4BB94AB1028002C0220F9C
:1018F000331F0A94E2F7242B2AB90895FC014BB157
:1019000021E030E0B901028002C0660F771F0A941F
:10191000E2F7962F909594239BB98AB1028002C07A
:10192000220F331F0A94E2F7282B2AB908950F9348
:101930001F93CF93DF93EC010E94670C8FE99FE028
:101940000197F1F700C0000087EC80937A008FE0E8
:1019500094E00197F1F700C0000000917800109129
:101960007900CE010E947E0CC8019370DF91CF9167
:101970001F910F9108950E94970C909326018093D8
:101980002501809140018F5F809340010895DB0124
:101990008F939F930E94270DBF91AF91A29F800DBF
:1019A000911DA39F900DB29F900D11240895A1E267
:1019B0001A2EAA1BBB1BFD010DC0AA1FBB1FEE1FC9
:1019C000FF1FA217B307E407F50720F0A21BB30B14
:1019D000E40BF50B661F771F881F991F1A9469F790
:1019E00060957095809590959B01AC01BD01CF01EC
:1019F0000895052E97FB1EF400940E94100D57FDCC
:101A000007D00E94D70C07FC03D04EF40C94100DA5
:101A100050954095309521953F4F4F4F5F4F08951A
:101A200090958095709561957F4F8F4F9F4F08954A
:101A3000A29FB001B39FC001A39F700D811D11240F
:101A4000911DB29F700D811D1124911D08950E945A
:101A5000180DA59F900DB49F900DA49F800D911D12
:101A600011240895B7FF0C94270D0E94270D821BA7
:101A7000930B0895DF93CF931F930F939A9DF02DAF
:101A8000219FF00D8B9DF00D8A9DE02DF10D039FA0
:101A9000F00D029FE00DF11D4E9DE00DF11D5E9DCC
:101AA000F00D4F9DF00D7F936F93BF92AF925F93B8
:101AB0004F93D5010E94180D8B01AC01D7010E94F4
:101AC000180DEB01E80FF91FD6010E948A0D2F9126
:101AD0003F91D6010E94180DC60FD71FE81FF91FAE
:101AE000AF91BF910E948A0D2F913F910E94180DD6
:101AF000C60FD71FE81FF91FD6010E94180DE60F69
:101B0000F71F9801BE01CF0111240F911F91CF91B2
:101B1000DF9108950E94180D460F571FC81FD91F47
:101B200008F431960895689401C0E894F92FF12BD8
:101B300012F00C94C70DA0E0B0E0E1EAFDE00C94D7
:101B4000390E092E059422F40E94230E112392F4DB
:101B5000F0E80F26FFEFE094F09400951095B09414
:101B6000C094D094A194BF0ACF0ADF0AEF0AFF0AFB
:101B70000F0B1F0B0E94D20D07FC0E94230ECDB746
:101B8000DEB7ECE00C94550E689401C0E8948F9297
:101B90009F92CF93DF930E94D20DDF91CF919F90C0
:101BA0008F90089588249924F401E401B0E49F9370
:101BB000AA279A158B049C04ED05FE05CF05D007D6
:101BC000A10798F4AD2FDC2FCF2FFE2FE92D982CF5
:101BD000892E982F872F762F652F542F432F322F42
:101BE0002227B85031F7BF9127C01B2EBF91BB27CA
:101BF000220F331F441F551F661F771F881F991F11
:101C0000881C991CEE1FFF1FCC1FDD1FAA1FBB1FC6
:101C10008A149B04EC05FD05CE05DF05A007B1077E
:101C200048F08A189B08EC09FD09CE09DF09A00BD2
:101C3000B10B21601A94E1F62EF49401AF01BE01BC
:101C4000CD01000C08956095709580959095309524
:101C50004095509521953F4F4F4F5F4F6F4F7F4FAE
:101C60008F4F9F4F08952F923F924F925F926F92A6
:101C70007F928F929F92AF92BF92CF92DF92EF921C
:101C8000FF920F931F93CF93DF93CDB7DEB7CA1B9D
:101C9000DB0B0FB6F894DEBF0FBECDBF09942A88C8
:101CA000398848885F846E847D848C849B84AA8470
:101CB000B984C884DF80EE80FD800C811B81AA81FD
:101CC000B981CE0FD11D0FB6F894DEBF0FBECDBFC8
:101CD000ED0108950F93083090F0982F872F762FFD
:101CE000652F542F432F322F22270850F4CF220F75
:101CF000331F441F551F661F771F881F991F0A95A2
:101D0000B2F70F91089597FB10F8169400080F93FF
:101D1000083098F00850232F342F452F562F672F67
:101D2000782F892F902DF4CF0594979587957795E7
:101D3000679557954795379527950A95AAF70F9177
:101D400008952A0D3B1D4C1D5D1D6E1D7F1D801FBE
:101D5000911F08952A193B094C095D096E097F09F5
:101D6000800B910B08950024A7FD00942A173005DD
:101D70004005500560057005800590050895AEE0AA
:101D8000B0E0E5ECFEE00C94410E0D891E8986E082
:101D90008C831A8309838FEF9FE79E838D83AE0127
:101DA000475E5F4F6F89788DCE0101960E94E20EEB
:101DB0002F813885F801E20FF31F10822E96E4E0A0
:101DC0000C945D0EACE0B0E0E8EEFEE00C94330E57
:101DD0007C016B018A01FC0117821682838181FFDD
:101DE000BDC1CE0101964C01F7019381F60193FD2F
:101DF000859193FF81916F01882309F4ABC18532EE
:101E000039F493FD859193FF81916F01853229F417
:101E1000B70190E00E94CA10E7CF512C312C20E08E
:101E20002032A0F48B3269F030F4803259F08332E2
:101E300069F420612CC08D3239F0803339F421608F
:101E400026C02260246023C0286021C027FD27C04F
:101E500030ED380F3A3078F426FF06C0FAE05F9E86
:101E6000300D1124532E13C08AE0389E300D1124FA
:101E7000332E20620CC08E3221F426FD6BC120640B
:101E800006C08C3611F4206802C0883641F4F60191
:101E900093FD859193FF81916F018111C1CF982F9F
:101EA0009F7D9554933028F40C5F1F4FFFE3F98317
:101EB0000DC0833631F0833771F0833509F05BC094
:101EC00022C0F801808189830E5F1F4F4424439410
:101ED000512C540115C03801F2E06F0E711CF8014D
:101EE000A080B18026FF03C0652D70E002C06FEFB7
:101EF0007FEFC5012C870E94BF102C0183012C8528
:101F00002F77222E17C03801F2E06F0E711CF801F6
:101F1000A080B18026FF03C0652D70E002C06FEF86
:101F20007FEFC5012C870E94B4102C012C852068FE
:101F3000222E830123FC1BC0832D90E048165906F6
:101F4000B0F4B70180E290E00E94CA103A94F4CF56
:101F5000F50127FC859127FE81915F01B70190E093
:101F60000E94CA1031103A94F1E04F1A51084114FE
:101F7000510471F7E5C0843611F0893639F5F8015E
:101F800027FF07C060817181828193810C5F1F4FA1
:101F900008C060817181072E000C880B990B0E5FC1
:101FA0001F4F2F76722E97FF09C0909580957095E0
:101FB00061957F4F8F4F9F4F2068722E2AE030E04F
:101FC000A4010E940211A82EA81844C0853729F444
:101FD0002F7EB22E2AE030E025C0F22FF97FBF2EEF
:101FE0008F36C1F018F4883579F0B4C0803719F015
:101FF000883721F0AFC02F2F2061B22EB4FE0DC064
:102000008B2D8460B82E09C024FF0AC09F2F9660D4
:10201000B92E06C028E030E005C020E130E002C063
:1020200020E132E0F801B7FE07C060817181828152
:1020300093810C5F1F4F06C06081718180E090E04A
:102040000E5F1F4FA4010E940211A82EA818FB2D9D
:10205000FF777F2E76FE0BC0372D3E7FA51450F400
:1020600074FE0AC072FC08C0372D3E7E05C0BA2C33
:10207000372D03C0BA2C01C0B52C34FF0DC0FE01B2
:10208000EA0DF11D8081803311F4397E09C032FFE1
:1020900006C0B394B39404C0832F867809F0B39438
:1020A00033FD13C030FF06C05A2CB31418F4530C80
:1020B0005B18B32CB31468F4B70180E290E03C875E
:1020C0000E94CA10B3943C85F5CFB31410F43B18AA
:1020D00001C0312C34FF12C0B70180E390E03C878F
:1020E0000E94CA103C8532FF17C031FD03C088E74B
:1020F00090E002C088E590E0B7010CC0832F86789D
:1021000059F031FF02C08BE201C080E237FD8DE261
:10211000B70190E00E94CA10A51438F4B70180E31B
:1021200090E00E94CA105A94F7CFAA94F401EA0DE5
:10213000F11D8081B70190E00E94CA10A110F5CF77
:10214000332009F451CEB70180E290E00E94CA101A
:102150003A94F6CFF7018681978102C08FEF9FEF07
:102160002C96E2E10C944F0EFC01059061507040FA
:102170000110D8F7809590958E0F9F1F0895FC0150
:102180006150704001900110D8F7809590958E0FA6
:102190009F1F08950F931F93CF93DF93FB0123811C
:1021A00021FD03C08FEF9FEF28C022FF16C046819C
:1021B0005781248135814217530744F4A081B181AE
:1021C0009D012F5F3F4F318320838C932681378180
:1021D0002F5F3F4F3783268310C0EB01092F182F45
:1021E0000084F185E02D0995892BE1F68E819F8190
:1021F00001969F838E83812F902FDF91CF911F9126
:102200000F910895FA01AA27283051F1203181F168
:10221000E8946F936E7F6E5F7F4F8F4F9F4FAF4FEE
:10222000B1E03ED0B4E03CD0670F781F891F9A1F01
:10223000A11D680F791F8A1F911DA11D6A0F711DB5
:10224000811D911DA11D20D009F468943F912AE0C1
:10225000269F11243019305D3193DEF6CF010895A9
:10226000462F4770405D4193B3E00FD0C9F7F6CFDA
:10227000462F4F70405D4A3318F0495D31FD4052A2
:10228000419302D0A9F7EACFB4E0A6959795879538
:1022900077956795BA95C9F7009761057105089517
:1022A0009B01AC010A2E06945795479537952795C3
:1022B000BA95C9F7620F731F841F951FA01D08955B
:0422C000F894FFCFC0
:1022C4003C5B3D256C642C256C642C256C642C25AE
:1022D4006C752C25642C25642C25642C25643D5DAB
:0422E4003E0D0A00A1
:00000001FF
